{
	"contracts/marketplace.sol": {
		"Marketplace": {
			"abi": [
				{
					"inputs": [
						{
							"internalType": "uint256",
							"name": "_index",
							"type": "uint256"
						}
					],
					"name": "buyProduct",
					"outputs": [],
					"stateMutability": "payable",
					"type": "function"
				},
				{
					"inputs": [],
					"name": "getProductsLength",
					"outputs": [
						{
							"internalType": "uint256",
							"name": "",
							"type": "uint256"
						}
					],
					"stateMutability": "view",
					"type": "function"
				},
				{
					"inputs": [
						{
							"internalType": "uint256",
							"name": "_index",
							"type": "uint256"
						}
					],
					"name": "readProduct",
					"outputs": [
						{
							"internalType": "address payable",
							"name": "",
							"type": "address"
						},
						{
							"internalType": "string",
							"name": "",
							"type": "string"
						},
						{
							"internalType": "string",
							"name": "",
							"type": "string"
						},
						{
							"internalType": "string",
							"name": "",
							"type": "string"
						},
						{
							"internalType": "string",
							"name": "",
							"type": "string"
						},
						{
							"internalType": "uint256",
							"name": "",
							"type": "uint256"
						},
						{
							"internalType": "uint256",
							"name": "",
							"type": "uint256"
						}
					],
					"stateMutability": "view",
					"type": "function"
				},
				{
					"inputs": [
						{
							"internalType": "string",
							"name": "_name",
							"type": "string"
						},
						{
							"internalType": "string",
							"name": "_image",
							"type": "string"
						},
						{
							"internalType": "string",
							"name": "_description",
							"type": "string"
						},
						{
							"internalType": "string",
							"name": "_location",
							"type": "string"
						},
						{
							"internalType": "uint256",
							"name": "_price",
							"type": "uint256"
						}
					],
					"name": "writeProduct",
					"outputs": [],
					"stateMutability": "nonpayable",
					"type": "function"
				}
			],
			"devdoc": {
				"kind": "dev",
				"methods": {},
				"version": 1
			},
			"evm": {
				"assembly": "    /* \"contracts/marketplace.sol\":660:2520  contract Marketplace {... */\n  mstore(0x40, 0x80)\n    /* \"contracts/marketplace.sol\":721:722  0 */\n  0x00\n    /* \"contracts/marketplace.sol\":690:722  uint internal productsLength = 0 */\n  dup1\n  sstore\n    /* \"contracts/marketplace.sol\":765:807  0x66A649a18f052A82975bd2EadA5d6AD0d83a7DcC */\n  0x66a649a18f052a82975bd2eada5d6ad0d83a7dcc\n    /* \"contracts/marketplace.sol\":729:807  address internal cUsdTokenAddress = 0x66A649a18f052A82975bd2EadA5d6AD0d83a7DcC */\n  0x01\n  exp(0x0100, 0x00)\n  dup2\n  sload\n  dup2\n  0xffffffffffffffffffffffffffffffffffffffff\n  mul\n  not\n  and\n  swap1\n  dup4\n  0xffffffffffffffffffffffffffffffffffffffff\n  and\n  mul\n  or\n  swap1\n  sstore\n  pop\n    /* \"contracts/marketplace.sol\":660:2520  contract Marketplace {... */\n  callvalue\n  dup1\n  iszero\n  tag_1\n  jumpi\n  0x00\n  dup1\n  revert\ntag_1:\n  pop\n  dataSize(sub_0)\n  dup1\n  dataOffset(sub_0)\n  0x00\n  codecopy\n  0x00\n  return\nstop\n\nsub_0: assembly {\n        /* \"contracts/marketplace.sol\":660:2520  contract Marketplace {... */\n      mstore(0x40, 0x80)\n      jumpi(tag_1, lt(calldatasize, 0x04))\n      shr(0xe0, calldataload(0x00))\n      dup1\n      0x1155dfe5\n      eq\n      tag_2\n      jumpi\n      dup1\n      0x8642269e\n      eq\n      tag_3\n      jumpi\n      dup1\n      0x8da8f27b\n      eq\n      tag_4\n      jumpi\n      dup1\n      0xfffa7e2e\n      eq\n      tag_5\n      jumpi\n    tag_1:\n      0x00\n      dup1\n      revert\n        /* \"contracts/marketplace.sol\":2419:2517  function getProductsLength() public view returns (uint) {... */\n    tag_2:\n      callvalue\n      dup1\n      iszero\n      tag_6\n      jumpi\n      0x00\n      dup1\n      revert\n    tag_6:\n      pop\n      tag_7\n      tag_8\n      jump\t// in\n    tag_7:\n      mload(0x40)\n      tag_9\n      swap2\n      swap1\n      tag_10\n      jump\t// in\n    tag_9:\n      mload(0x40)\n      dup1\n      swap2\n      sub\n      swap1\n      return\n        /* \"contracts/marketplace.sol\":2089:2407  function buyProduct(uint _index) public payable  {... */\n    tag_3:\n      tag_11\n      0x04\n      dup1\n      calldatasize\n      sub\n      dup2\n      add\n      swap1\n      tag_12\n      swap2\n      swap1\n      tag_13\n      jump\t// in\n    tag_12:\n      tag_14\n      jump\t// in\n    tag_11:\n      stop\n        /* \"contracts/marketplace.sol\":1072:1547  function writeProduct(... */\n    tag_4:\n      callvalue\n      dup1\n      iszero\n      tag_15\n      jumpi\n      0x00\n      dup1\n      revert\n    tag_15:\n      pop\n      tag_16\n      0x04\n      dup1\n      calldatasize\n      sub\n      dup2\n      add\n      swap1\n      tag_17\n      swap2\n      swap1\n      tag_18\n      jump\t// in\n    tag_17:\n      tag_19\n      jump\t// in\n    tag_16:\n      stop\n        /* \"contracts/marketplace.sol\":1555:2081  function readProduct(uint _index) public view returns (... */\n    tag_5:\n      callvalue\n      dup1\n      iszero\n      tag_20\n      jumpi\n      0x00\n      dup1\n      revert\n    tag_20:\n      pop\n      tag_21\n      0x04\n      dup1\n      calldatasize\n      sub\n      dup2\n      add\n      swap1\n      tag_22\n      swap2\n      swap1\n      tag_13\n      jump\t// in\n    tag_22:\n      tag_23\n      jump\t// in\n    tag_21:\n      mload(0x40)\n      tag_24\n      swap8\n      swap7\n      swap6\n      swap5\n      swap4\n      swap3\n      swap2\n      swap1\n      tag_25\n      jump\t// in\n    tag_24:\n      mload(0x40)\n      dup1\n      swap2\n      sub\n      swap1\n      return\n        /* \"contracts/marketplace.sol\":2419:2517  function getProductsLength() public view returns (uint) {... */\n    tag_8:\n        /* \"contracts/marketplace.sol\":2469:2473  uint */\n      0x00\n        /* \"contracts/marketplace.sol\":2494:2508  productsLength */\n      dup1\n      sload\n        /* \"contracts/marketplace.sol\":2486:2509  return (productsLength) */\n      swap1\n      pop\n        /* \"contracts/marketplace.sol\":2419:2517  function getProductsLength() public view returns (uint) {... */\n      swap1\n      jump\t// out\n        /* \"contracts/marketplace.sol\":2089:2407  function buyProduct(uint _index) public payable  {... */\n    tag_14:\n        /* \"contracts/marketplace.sol\":2181:2197  cUsdTokenAddress */\n      0x01\n      0x00\n      swap1\n      sload\n      swap1\n      0x0100\n      exp\n      swap1\n      div\n      0xffffffffffffffffffffffffffffffffffffffff\n      and\n        /* \"contracts/marketplace.sol\":2169:2211  IERC20Token(cUsdTokenAddress).transferFrom */\n      0xffffffffffffffffffffffffffffffffffffffff\n      and\n      0x23b872dd\n        /* \"contracts/marketplace.sol\":2226:2236  msg.sender */\n      caller\n        /* \"contracts/marketplace.sol\":2251:2259  products */\n      0x02\n        /* \"contracts/marketplace.sol\":2251:2267  products[_index] */\n      0x00\n        /* \"contracts/marketplace.sol\":2260:2266  _index */\n      dup6\n        /* \"contracts/marketplace.sol\":2251:2267  products[_index] */\n      dup2\n      mstore\n      0x20\n      add\n      swap1\n      dup2\n      mstore\n      0x20\n      add\n      0x00\n      keccak256\n        /* \"contracts/marketplace.sol\":2251:2273  products[_index].owner */\n      0x00\n      add\n      0x00\n      swap1\n      sload\n      swap1\n      0x0100\n      exp\n      swap1\n      div\n      0xffffffffffffffffffffffffffffffffffffffff\n      and\n        /* \"contracts/marketplace.sol\":2288:2296  products */\n      0x02\n        /* \"contracts/marketplace.sol\":2288:2304  products[_index] */\n      0x00\n        /* \"contracts/marketplace.sol\":2297:2303  _index */\n      dup7\n        /* \"contracts/marketplace.sol\":2288:2304  products[_index] */\n      dup2\n      mstore\n      0x20\n      add\n      swap1\n      dup2\n      mstore\n      0x20\n      add\n      0x00\n      keccak256\n        /* \"contracts/marketplace.sol\":2288:2310  products[_index].price */\n      0x05\n      add\n      sload\n        /* \"contracts/marketplace.sol\":2169:2323  IERC20Token(cUsdTokenAddress).transferFrom(... */\n      mload(0x40)\n      dup5\n      0xffffffff\n      and\n      0xe0\n      shl\n      dup2\n      mstore\n      0x04\n      add\n      tag_28\n      swap4\n      swap3\n      swap2\n      swap1\n      tag_29\n      jump\t// in\n    tag_28:\n      0x20\n      mload(0x40)\n      dup1\n      dup4\n      sub\n      dup2\n      0x00\n      dup8\n      gas\n      call\n      iszero\n      dup1\n      iszero\n      tag_31\n      jumpi\n      returndatasize\n      0x00\n      dup1\n      returndatacopy\n      revert(0x00, returndatasize)\n    tag_31:\n      pop\n      pop\n      pop\n      pop\n      mload(0x40)\n      returndatasize\n      not(0x1f)\n      0x1f\n      dup3\n      add\n      and\n      dup3\n      add\n      dup1\n      0x40\n      mstore\n      pop\n      dup2\n      add\n      swap1\n      tag_32\n      swap2\n      swap1\n      tag_33\n      jump\t// in\n    tag_32:\n        /* \"contracts/marketplace.sol\":2149:2365  require(... */\n      tag_34\n      jumpi\n      mload(0x40)\n      0x08c379a000000000000000000000000000000000000000000000000000000000\n      dup2\n      mstore\n      0x04\n      add\n      tag_35\n      swap1\n      tag_36\n      jump\t// in\n    tag_35:\n      mload(0x40)\n      dup1\n      swap2\n      sub\n      swap1\n      revert\n    tag_34:\n        /* \"contracts/marketplace.sol\":2376:2384  products */\n      0x02\n        /* \"contracts/marketplace.sol\":2376:2392  products[_index] */\n      0x00\n        /* \"contracts/marketplace.sol\":2385:2391  _index */\n      dup3\n        /* \"contracts/marketplace.sol\":2376:2392  products[_index] */\n      dup2\n      mstore\n      0x20\n      add\n      swap1\n      dup2\n      mstore\n      0x20\n      add\n      0x00\n      keccak256\n        /* \"contracts/marketplace.sol\":2376:2397  products[_index].sold */\n      0x06\n      add\n      0x00\n        /* \"contracts/marketplace.sol\":2376:2399  products[_index].sold++ */\n      dup2\n      sload\n      dup1\n      swap3\n      swap2\n      swap1\n      tag_37\n      swap1\n      tag_38\n      jump\t// in\n    tag_37:\n      swap2\n      swap1\n      pop\n      sstore\n      pop\n        /* \"contracts/marketplace.sol\":2089:2407  function buyProduct(uint _index) public payable  {... */\n      pop\n      jump\t// out\n        /* \"contracts/marketplace.sol\":1072:1547  function writeProduct(... */\n    tag_19:\n        /* \"contracts/marketplace.sol\":1275:1285  uint _sold */\n      0x00\n        /* \"contracts/marketplace.sol\":1327:1512  Product(... */\n      mload(0x40)\n      dup1\n      0xe0\n      add\n      0x40\n      mstore\n      dup1\n        /* \"contracts/marketplace.sol\":1357:1367  msg.sender */\n      caller\n        /* \"contracts/marketplace.sol\":1327:1512  Product(... */\n      0xffffffffffffffffffffffffffffffffffffffff\n      and\n      dup2\n      mstore\n      0x20\n      add\n        /* \"contracts/marketplace.sol\":1383:1388  _name */\n      dup8\n        /* \"contracts/marketplace.sol\":1327:1512  Product(... */\n      dup2\n      mstore\n      0x20\n      add\n        /* \"contracts/marketplace.sol\":1403:1409  _image */\n      dup7\n        /* \"contracts/marketplace.sol\":1327:1512  Product(... */\n      dup2\n      mstore\n      0x20\n      add\n        /* \"contracts/marketplace.sol\":1424:1436  _description */\n      dup6\n        /* \"contracts/marketplace.sol\":1327:1512  Product(... */\n      dup2\n      mstore\n      0x20\n      add\n        /* \"contracts/marketplace.sol\":1451:1460  _location */\n      dup5\n        /* \"contracts/marketplace.sol\":1327:1512  Product(... */\n      dup2\n      mstore\n      0x20\n      add\n        /* \"contracts/marketplace.sol\":1475:1481  _price */\n      dup4\n        /* \"contracts/marketplace.sol\":1327:1512  Product(... */\n      dup2\n      mstore\n      0x20\n      add\n        /* \"contracts/marketplace.sol\":1496:1501  _sold */\n      dup3\n        /* \"contracts/marketplace.sol\":1327:1512  Product(... */\n      dup2\n      mstore\n      pop\n        /* \"contracts/marketplace.sol\":1300:1308  products */\n      0x02\n        /* \"contracts/marketplace.sol\":1300:1324  products[productsLength] */\n      0x00\n        /* \"contracts/marketplace.sol\":1309:1323  productsLength */\n      dup1\n      sload\n        /* \"contracts/marketplace.sol\":1300:1324  products[productsLength] */\n      dup2\n      mstore\n      0x20\n      add\n      swap1\n      dup2\n      mstore\n      0x20\n      add\n      0x00\n      keccak256\n        /* \"contracts/marketplace.sol\":1300:1512  products[productsLength] = Product(... */\n      0x00\n      dup3\n      add\n      mload\n      dup2\n      0x00\n      add\n      exp(0x0100, 0x00)\n      dup2\n      sload\n      dup2\n      0xffffffffffffffffffffffffffffffffffffffff\n      mul\n      not\n      and\n      swap1\n      dup4\n      0xffffffffffffffffffffffffffffffffffffffff\n      and\n      mul\n      or\n      swap1\n      sstore\n      pop\n      0x20\n      dup3\n      add\n      mload\n      dup2\n      0x01\n      add\n      swap1\n      dup2\n      tag_40\n      swap2\n      swap1\n      tag_41\n      jump\t// in\n    tag_40:\n      pop\n      0x40\n      dup3\n      add\n      mload\n      dup2\n      0x02\n      add\n      swap1\n      dup2\n      tag_42\n      swap2\n      swap1\n      tag_41\n      jump\t// in\n    tag_42:\n      pop\n      0x60\n      dup3\n      add\n      mload\n      dup2\n      0x03\n      add\n      swap1\n      dup2\n      tag_43\n      swap2\n      swap1\n      tag_41\n      jump\t// in\n    tag_43:\n      pop\n      0x80\n      dup3\n      add\n      mload\n      dup2\n      0x04\n      add\n      swap1\n      dup2\n      tag_44\n      swap2\n      swap1\n      tag_41\n      jump\t// in\n    tag_44:\n      pop\n      0xa0\n      dup3\n      add\n      mload\n      dup2\n      0x05\n      add\n      sstore\n      0xc0\n      dup3\n      add\n      mload\n      dup2\n      0x06\n      add\n      sstore\n      swap1\n      pop\n      pop\n        /* \"contracts/marketplace.sol\":1523:1537  productsLength */\n      0x00\n      dup1\n        /* \"contracts/marketplace.sol\":1523:1539  productsLength++ */\n      dup2\n      sload\n      dup1\n      swap3\n      swap2\n      swap1\n      tag_45\n      swap1\n      tag_38\n      jump\t// in\n    tag_45:\n      swap2\n      swap1\n      pop\n      sstore\n      pop\n        /* \"contracts/marketplace.sol\":1264:1547  {... */\n      pop\n        /* \"contracts/marketplace.sol\":1072:1547  function writeProduct(... */\n      pop\n      pop\n      pop\n      pop\n      pop\n      jump\t// out\n        /* \"contracts/marketplace.sol\":1555:2081  function readProduct(uint _index) public view returns (... */\n    tag_23:\n        /* \"contracts/marketplace.sol\":1620:1635  address payable */\n      0x00\n        /* \"contracts/marketplace.sol\":1646:1659  string memory */\n      0x60\n        /* \"contracts/marketplace.sol\":1671:1684  string memory */\n      dup1\n        /* \"contracts/marketplace.sol\":1696:1709  string memory */\n      0x60\n        /* \"contracts/marketplace.sol\":1721:1734  string memory */\n      dup1\n        /* \"contracts/marketplace.sol\":1746:1750  uint */\n      0x00\n        /* \"contracts/marketplace.sol\":1762:1766  uint */\n      dup1\n        /* \"contracts/marketplace.sol\":1807:1815  products */\n      0x02\n        /* \"contracts/marketplace.sol\":1807:1823  products[_index] */\n      0x00\n        /* \"contracts/marketplace.sol\":1816:1822  _index */\n      dup10\n        /* \"contracts/marketplace.sol\":1807:1823  products[_index] */\n      dup2\n      mstore\n      0x20\n      add\n      swap1\n      dup2\n      mstore\n      0x20\n      add\n      0x00\n      keccak256\n        /* \"contracts/marketplace.sol\":1807:1829  products[_index].owner */\n      0x00\n      add\n      0x00\n      swap1\n      sload\n      swap1\n      0x0100\n      exp\n      swap1\n      div\n      0xffffffffffffffffffffffffffffffffffffffff\n      and\n        /* \"contracts/marketplace.sol\":1844:1852  products */\n      0x02\n        /* \"contracts/marketplace.sol\":1844:1860  products[_index] */\n      0x00\n        /* \"contracts/marketplace.sol\":1853:1859  _index */\n      dup11\n        /* \"contracts/marketplace.sol\":1844:1860  products[_index] */\n      dup2\n      mstore\n      0x20\n      add\n      swap1\n      dup2\n      mstore\n      0x20\n      add\n      0x00\n      keccak256\n        /* \"contracts/marketplace.sol\":1844:1865  products[_index].name */\n      0x01\n      add\n        /* \"contracts/marketplace.sol\":1881:1889  products */\n      0x02\n        /* \"contracts/marketplace.sol\":1881:1897  products[_index] */\n      0x00\n        /* \"contracts/marketplace.sol\":1890:1896  _index */\n      dup12\n        /* \"contracts/marketplace.sol\":1881:1897  products[_index] */\n      dup2\n      mstore\n      0x20\n      add\n      swap1\n      dup2\n      mstore\n      0x20\n      add\n      0x00\n      keccak256\n        /* \"contracts/marketplace.sol\":1881:1903  products[_index].image */\n      0x02\n      add\n        /* \"contracts/marketplace.sol\":1919:1927  products */\n      0x02\n        /* \"contracts/marketplace.sol\":1919:1935  products[_index] */\n      0x00\n        /* \"contracts/marketplace.sol\":1928:1934  _index */\n      dup13\n        /* \"contracts/marketplace.sol\":1919:1935  products[_index] */\n      dup2\n      mstore\n      0x20\n      add\n      swap1\n      dup2\n      mstore\n      0x20\n      add\n      0x00\n      keccak256\n        /* \"contracts/marketplace.sol\":1919:1947  products[_index].description */\n      0x03\n      add\n        /* \"contracts/marketplace.sol\":1963:1971  products */\n      0x02\n        /* \"contracts/marketplace.sol\":1963:1979  products[_index] */\n      0x00\n        /* \"contracts/marketplace.sol\":1972:1978  _index */\n      dup14\n        /* \"contracts/marketplace.sol\":1963:1979  products[_index] */\n      dup2\n      mstore\n      0x20\n      add\n      swap1\n      dup2\n      mstore\n      0x20\n      add\n      0x00\n      keccak256\n        /* \"contracts/marketplace.sol\":1963:1988  products[_index].location */\n      0x04\n      add\n        /* \"contracts/marketplace.sol\":2004:2012  products */\n      0x02\n        /* \"contracts/marketplace.sol\":2004:2020  products[_index] */\n      0x00\n        /* \"contracts/marketplace.sol\":2013:2019  _index */\n      dup15\n        /* \"contracts/marketplace.sol\":2004:2020  products[_index] */\n      dup2\n      mstore\n      0x20\n      add\n      swap1\n      dup2\n      mstore\n      0x20\n      add\n      0x00\n      keccak256\n        /* \"contracts/marketplace.sol\":2004:2026  products[_index].price */\n      0x05\n      add\n      sload\n        /* \"contracts/marketplace.sol\":2041:2049  products */\n      0x02\n        /* \"contracts/marketplace.sol\":2041:2057  products[_index] */\n      0x00\n        /* \"contracts/marketplace.sol\":2050:2056  _index */\n      dup16\n        /* \"contracts/marketplace.sol\":2041:2057  products[_index] */\n      dup2\n      mstore\n      0x20\n      add\n      swap1\n      dup2\n      mstore\n      0x20\n      add\n      0x00\n      keccak256\n        /* \"contracts/marketplace.sol\":2041:2062  products[_index].sold */\n      0x06\n      add\n      sload\n        /* \"contracts/marketplace.sol\":1785:2073  return (... */\n      dup6\n      dup1\n      sload\n      tag_47\n      swap1\n      tag_48\n      jump\t// in\n    tag_47:\n      dup1\n      0x1f\n      add\n      0x20\n      dup1\n      swap2\n      div\n      mul\n      0x20\n      add\n      mload(0x40)\n      swap1\n      dup2\n      add\n      0x40\n      mstore\n      dup1\n      swap3\n      swap2\n      swap1\n      dup2\n      dup2\n      mstore\n      0x20\n      add\n      dup3\n      dup1\n      sload\n      tag_49\n      swap1\n      tag_48\n      jump\t// in\n    tag_49:\n      dup1\n      iszero\n      tag_50\n      jumpi\n      dup1\n      0x1f\n      lt\n      tag_51\n      jumpi\n      0x0100\n      dup1\n      dup4\n      sload\n      div\n      mul\n      dup4\n      mstore\n      swap2\n      0x20\n      add\n      swap2\n      jump(tag_50)\n    tag_51:\n      dup3\n      add\n      swap2\n      swap1\n      0x00\n      mstore\n      keccak256(0x00, 0x20)\n      swap1\n    tag_52:\n      dup2\n      sload\n      dup2\n      mstore\n      swap1\n      0x01\n      add\n      swap1\n      0x20\n      add\n      dup1\n      dup4\n      gt\n      tag_52\n      jumpi\n      dup3\n      swap1\n      sub\n      0x1f\n      and\n      dup3\n      add\n      swap2\n    tag_50:\n      pop\n      pop\n      pop\n      pop\n      pop\n      swap6\n      pop\n      dup5\n      dup1\n      sload\n      tag_53\n      swap1\n      tag_48\n      jump\t// in\n    tag_53:\n      dup1\n      0x1f\n      add\n      0x20\n      dup1\n      swap2\n      div\n      mul\n      0x20\n      add\n      mload(0x40)\n      swap1\n      dup2\n      add\n      0x40\n      mstore\n      dup1\n      swap3\n      swap2\n      swap1\n      dup2\n      dup2\n      mstore\n      0x20\n      add\n      dup3\n      dup1\n      sload\n      tag_54\n      swap1\n      tag_48\n      jump\t// in\n    tag_54:\n      dup1\n      iszero\n      tag_55\n      jumpi\n      dup1\n      0x1f\n      lt\n      tag_56\n      jumpi\n      0x0100\n      dup1\n      dup4\n      sload\n      div\n      mul\n      dup4\n      mstore\n      swap2\n      0x20\n      add\n      swap2\n      jump(tag_55)\n    tag_56:\n      dup3\n      add\n      swap2\n      swap1\n      0x00\n      mstore\n      keccak256(0x00, 0x20)\n      swap1\n    tag_57:\n      dup2\n      sload\n      dup2\n      mstore\n      swap1\n      0x01\n      add\n      swap1\n      0x20\n      add\n      dup1\n      dup4\n      gt\n      tag_57\n      jumpi\n      dup3\n      swap1\n      sub\n      0x1f\n      and\n      dup3\n      add\n      swap2\n    tag_55:\n      pop\n      pop\n      pop\n      pop\n      pop\n      swap5\n      pop\n      dup4\n      dup1\n      sload\n      tag_58\n      swap1\n      tag_48\n      jump\t// in\n    tag_58:\n      dup1\n      0x1f\n      add\n      0x20\n      dup1\n      swap2\n      div\n      mul\n      0x20\n      add\n      mload(0x40)\n      swap1\n      dup2\n      add\n      0x40\n      mstore\n      dup1\n      swap3\n      swap2\n      swap1\n      dup2\n      dup2\n      mstore\n      0x20\n      add\n      dup3\n      dup1\n      sload\n      tag_59\n      swap1\n      tag_48\n      jump\t// in\n    tag_59:\n      dup1\n      iszero\n      tag_60\n      jumpi\n      dup1\n      0x1f\n      lt\n      tag_61\n      jumpi\n      0x0100\n      dup1\n      dup4\n      sload\n      div\n      mul\n      dup4\n      mstore\n      swap2\n      0x20\n      add\n      swap2\n      jump(tag_60)\n    tag_61:\n      dup3\n      add\n      swap2\n      swap1\n      0x00\n      mstore\n      keccak256(0x00, 0x20)\n      swap1\n    tag_62:\n      dup2\n      sload\n      dup2\n      mstore\n      swap1\n      0x01\n      add\n      swap1\n      0x20\n      add\n      dup1\n      dup4\n      gt\n      tag_62\n      jumpi\n      dup3\n      swap1\n      sub\n      0x1f\n      and\n      dup3\n      add\n      swap2\n    tag_60:\n      pop\n      pop\n      pop\n      pop\n      pop\n      swap4\n      pop\n      dup3\n      dup1\n      sload\n      tag_63\n      swap1\n      tag_48\n      jump\t// in\n    tag_63:\n      dup1\n      0x1f\n      add\n      0x20\n      dup1\n      swap2\n      div\n      mul\n      0x20\n      add\n      mload(0x40)\n      swap1\n      dup2\n      add\n      0x40\n      mstore\n      dup1\n      swap3\n      swap2\n      swap1\n      dup2\n      dup2\n      mstore\n      0x20\n      add\n      dup3\n      dup1\n      sload\n      tag_64\n      swap1\n      tag_48\n      jump\t// in\n    tag_64:\n      dup1\n      iszero\n      tag_65\n      jumpi\n      dup1\n      0x1f\n      lt\n      tag_66\n      jumpi\n      0x0100\n      dup1\n      dup4\n      sload\n      div\n      mul\n      dup4\n      mstore\n      swap2\n      0x20\n      add\n      swap2\n      jump(tag_65)\n    tag_66:\n      dup3\n      add\n      swap2\n      swap1\n      0x00\n      mstore\n      keccak256(0x00, 0x20)\n      swap1\n    tag_67:\n      dup2\n      sload\n      dup2\n      mstore\n      swap1\n      0x01\n      add\n      swap1\n      0x20\n      add\n      dup1\n      dup4\n      gt\n      tag_67\n      jumpi\n      dup3\n      swap1\n      sub\n      0x1f\n      and\n      dup3\n      add\n      swap2\n    tag_65:\n      pop\n      pop\n      pop\n      pop\n      pop\n      swap3\n      pop\n      swap7\n      pop\n      swap7\n      pop\n      swap7\n      pop\n      swap7\n      pop\n      swap7\n      pop\n      swap7\n      pop\n      swap7\n      pop\n        /* \"contracts/marketplace.sol\":1555:2081  function readProduct(uint _index) public view returns (... */\n      swap2\n      swap4\n      swap6\n      swap8\n      swap1\n      swap3\n      swap5\n      swap7\n      pop\n      jump\t// out\n        /* \"#utility.yul\":7:84   */\n    tag_68:\n        /* \"#utility.yul\":44:51   */\n      0x00\n        /* \"#utility.yul\":73:78   */\n      dup2\n        /* \"#utility.yul\":62:78   */\n      swap1\n      pop\n        /* \"#utility.yul\":7:84   */\n      swap2\n      swap1\n      pop\n      jump\t// out\n        /* \"#utility.yul\":90:208   */\n    tag_69:\n        /* \"#utility.yul\":177:201   */\n      tag_123\n        /* \"#utility.yul\":195:200   */\n      dup2\n        /* \"#utility.yul\":177:201   */\n      tag_68\n      jump\t// in\n    tag_123:\n        /* \"#utility.yul\":172:175   */\n      dup3\n        /* \"#utility.yul\":165:202   */\n      mstore\n        /* \"#utility.yul\":90:208   */\n      pop\n      pop\n      jump\t// out\n        /* \"#utility.yul\":214:436   */\n    tag_10:\n        /* \"#utility.yul\":307:311   */\n      0x00\n        /* \"#utility.yul\":345:347   */\n      0x20\n        /* \"#utility.yul\":334:343   */\n      dup3\n        /* \"#utility.yul\":330:348   */\n      add\n        /* \"#utility.yul\":322:348   */\n      swap1\n      pop\n        /* \"#utility.yul\":358:429   */\n      tag_125\n        /* \"#utility.yul\":426:427   */\n      0x00\n        /* \"#utility.yul\":415:424   */\n      dup4\n        /* \"#utility.yul\":411:428   */\n      add\n        /* \"#utility.yul\":402:408   */\n      dup5\n        /* \"#utility.yul\":358:429   */\n      tag_69\n      jump\t// in\n    tag_125:\n        /* \"#utility.yul\":214:436   */\n      swap3\n      swap2\n      pop\n      pop\n      jump\t// out\n        /* \"#utility.yul\":442:517   */\n    tag_70:\n        /* \"#utility.yul\":475:481   */\n      0x00\n        /* \"#utility.yul\":508:510   */\n      0x40\n        /* \"#utility.yul\":502:511   */\n      mload\n        /* \"#utility.yul\":492:511   */\n      swap1\n      pop\n        /* \"#utility.yul\":442:517   */\n      swap1\n      jump\t// out\n        /* \"#utility.yul\":523:640   */\n    tag_71:\n        /* \"#utility.yul\":632:633   */\n      0x00\n        /* \"#utility.yul\":629:630   */\n      dup1\n        /* \"#utility.yul\":622:634   */\n      revert\n        /* \"#utility.yul\":646:763   */\n    tag_72:\n        /* \"#utility.yul\":755:756   */\n      0x00\n        /* \"#utility.yul\":752:753   */\n      dup1\n        /* \"#utility.yul\":745:757   */\n      revert\n        /* \"#utility.yul\":769:891   */\n    tag_73:\n        /* \"#utility.yul\":842:866   */\n      tag_130\n        /* \"#utility.yul\":860:865   */\n      dup2\n        /* \"#utility.yul\":842:866   */\n      tag_68\n      jump\t// in\n    tag_130:\n        /* \"#utility.yul\":835:840   */\n      dup2\n        /* \"#utility.yul\":832:867   */\n      eq\n        /* \"#utility.yul\":822:885   */\n      tag_131\n      jumpi\n        /* \"#utility.yul\":881:882   */\n      0x00\n        /* \"#utility.yul\":878:879   */\n      dup1\n        /* \"#utility.yul\":871:883   */\n      revert\n        /* \"#utility.yul\":822:885   */\n    tag_131:\n        /* \"#utility.yul\":769:891   */\n      pop\n      jump\t// out\n        /* \"#utility.yul\":897:1036   */\n    tag_74:\n        /* \"#utility.yul\":943:948   */\n      0x00\n        /* \"#utility.yul\":981:987   */\n      dup2\n        /* \"#utility.yul\":968:988   */\n      calldataload\n        /* \"#utility.yul\":959:988   */\n      swap1\n      pop\n        /* \"#utility.yul\":997:1030   */\n      tag_133\n        /* \"#utility.yul\":1024:1029   */\n      dup2\n        /* \"#utility.yul\":997:1030   */\n      tag_73\n      jump\t// in\n    tag_133:\n        /* \"#utility.yul\":897:1036   */\n      swap3\n      swap2\n      pop\n      pop\n      jump\t// out\n        /* \"#utility.yul\":1042:1371   */\n    tag_13:\n        /* \"#utility.yul\":1101:1107   */\n      0x00\n        /* \"#utility.yul\":1150:1152   */\n      0x20\n        /* \"#utility.yul\":1138:1147   */\n      dup3\n        /* \"#utility.yul\":1129:1136   */\n      dup5\n        /* \"#utility.yul\":1125:1148   */\n      sub\n        /* \"#utility.yul\":1121:1153   */\n      slt\n        /* \"#utility.yul\":1118:1237   */\n      iszero\n      tag_135\n      jumpi\n        /* \"#utility.yul\":1156:1235   */\n      tag_136\n      tag_71\n      jump\t// in\n    tag_136:\n        /* \"#utility.yul\":1118:1237   */\n    tag_135:\n        /* \"#utility.yul\":1276:1277   */\n      0x00\n        /* \"#utility.yul\":1301:1354   */\n      tag_137\n        /* \"#utility.yul\":1346:1353   */\n      dup5\n        /* \"#utility.yul\":1337:1343   */\n      dup3\n        /* \"#utility.yul\":1326:1335   */\n      dup6\n        /* \"#utility.yul\":1322:1344   */\n      add\n        /* \"#utility.yul\":1301:1354   */\n      tag_74\n      jump\t// in\n    tag_137:\n        /* \"#utility.yul\":1291:1354   */\n      swap2\n      pop\n        /* \"#utility.yul\":1247:1364   */\n      pop\n        /* \"#utility.yul\":1042:1371   */\n      swap3\n      swap2\n      pop\n      pop\n      jump\t// out\n        /* \"#utility.yul\":1377:1494   */\n    tag_75:\n        /* \"#utility.yul\":1486:1487   */\n      0x00\n        /* \"#utility.yul\":1483:1484   */\n      dup1\n        /* \"#utility.yul\":1476:1488   */\n      revert\n        /* \"#utility.yul\":1500:1617   */\n    tag_76:\n        /* \"#utility.yul\":1609:1610   */\n      0x00\n        /* \"#utility.yul\":1606:1607   */\n      dup1\n        /* \"#utility.yul\":1599:1611   */\n      revert\n        /* \"#utility.yul\":1623:1725   */\n    tag_77:\n        /* \"#utility.yul\":1664:1670   */\n      0x00\n        /* \"#utility.yul\":1715:1717   */\n      0x1f\n        /* \"#utility.yul\":1711:1718   */\n      not\n        /* \"#utility.yul\":1706:1708   */\n      0x1f\n        /* \"#utility.yul\":1699:1704   */\n      dup4\n        /* \"#utility.yul\":1695:1709   */\n      add\n        /* \"#utility.yul\":1691:1719   */\n      and\n        /* \"#utility.yul\":1681:1719   */\n      swap1\n      pop\n        /* \"#utility.yul\":1623:1725   */\n      swap2\n      swap1\n      pop\n      jump\t// out\n        /* \"#utility.yul\":1731:1911   */\n    tag_78:\n        /* \"#utility.yul\":1779:1856   */\n      0x4e487b7100000000000000000000000000000000000000000000000000000000\n        /* \"#utility.yul\":1776:1777   */\n      0x00\n        /* \"#utility.yul\":1769:1857   */\n      mstore\n        /* \"#utility.yul\":1876:1880   */\n      0x41\n        /* \"#utility.yul\":1873:1874   */\n      0x04\n        /* \"#utility.yul\":1866:1881   */\n      mstore\n        /* \"#utility.yul\":1900:1904   */\n      0x24\n        /* \"#utility.yul\":1897:1898   */\n      0x00\n        /* \"#utility.yul\":1890:1905   */\n      revert\n        /* \"#utility.yul\":1917:2198   */\n    tag_79:\n        /* \"#utility.yul\":2000:2027   */\n      tag_143\n        /* \"#utility.yul\":2022:2026   */\n      dup3\n        /* \"#utility.yul\":2000:2027   */\n      tag_77\n      jump\t// in\n    tag_143:\n        /* \"#utility.yul\":1992:1998   */\n      dup2\n        /* \"#utility.yul\":1988:2028   */\n      add\n        /* \"#utility.yul\":2130:2136   */\n      dup2\n        /* \"#utility.yul\":2118:2128   */\n      dup2\n        /* \"#utility.yul\":2115:2137   */\n      lt\n        /* \"#utility.yul\":2094:2112   */\n      0xffffffffffffffff\n        /* \"#utility.yul\":2082:2092   */\n      dup3\n        /* \"#utility.yul\":2079:2113   */\n      gt\n        /* \"#utility.yul\":2076:2138   */\n      or\n        /* \"#utility.yul\":2073:2161   */\n      iszero\n      tag_144\n      jumpi\n        /* \"#utility.yul\":2141:2159   */\n      tag_145\n      tag_78\n      jump\t// in\n    tag_145:\n        /* \"#utility.yul\":2073:2161   */\n    tag_144:\n        /* \"#utility.yul\":2181:2191   */\n      dup1\n        /* \"#utility.yul\":2177:2179   */\n      0x40\n        /* \"#utility.yul\":2170:2192   */\n      mstore\n        /* \"#utility.yul\":1960:2198   */\n      pop\n        /* \"#utility.yul\":1917:2198   */\n      pop\n      pop\n      jump\t// out\n        /* \"#utility.yul\":2204:2333   */\n    tag_80:\n        /* \"#utility.yul\":2238:2244   */\n      0x00\n        /* \"#utility.yul\":2265:2285   */\n      tag_147\n      tag_70\n      jump\t// in\n    tag_147:\n        /* \"#utility.yul\":2255:2285   */\n      swap1\n      pop\n        /* \"#utility.yul\":2294:2327   */\n      tag_148\n        /* \"#utility.yul\":2322:2326   */\n      dup3\n        /* \"#utility.yul\":2314:2320   */\n      dup3\n        /* \"#utility.yul\":2294:2327   */\n      tag_79\n      jump\t// in\n    tag_148:\n        /* \"#utility.yul\":2204:2333   */\n      swap2\n      swap1\n      pop\n      jump\t// out\n        /* \"#utility.yul\":2339:2647   */\n    tag_81:\n        /* \"#utility.yul\":2401:2405   */\n      0x00\n        /* \"#utility.yul\":2491:2509   */\n      0xffffffffffffffff\n        /* \"#utility.yul\":2483:2489   */\n      dup3\n        /* \"#utility.yul\":2480:2510   */\n      gt\n        /* \"#utility.yul\":2477:2533   */\n      iszero\n      tag_150\n      jumpi\n        /* \"#utility.yul\":2513:2531   */\n      tag_151\n      tag_78\n      jump\t// in\n    tag_151:\n        /* \"#utility.yul\":2477:2533   */\n    tag_150:\n        /* \"#utility.yul\":2551:2580   */\n      tag_152\n        /* \"#utility.yul\":2573:2579   */\n      dup3\n        /* \"#utility.yul\":2551:2580   */\n      tag_77\n      jump\t// in\n    tag_152:\n        /* \"#utility.yul\":2543:2580   */\n      swap1\n      pop\n        /* \"#utility.yul\":2635:2639   */\n      0x20\n        /* \"#utility.yul\":2629:2633   */\n      dup2\n        /* \"#utility.yul\":2625:2640   */\n      add\n        /* \"#utility.yul\":2617:2640   */\n      swap1\n      pop\n        /* \"#utility.yul\":2339:2647   */\n      swap2\n      swap1\n      pop\n      jump\t// out\n        /* \"#utility.yul\":2653:2799   */\n    tag_82:\n        /* \"#utility.yul\":2750:2756   */\n      dup3\n        /* \"#utility.yul\":2745:2748   */\n      dup2\n        /* \"#utility.yul\":2740:2743   */\n      dup4\n        /* \"#utility.yul\":2727:2757   */\n      calldatacopy\n        /* \"#utility.yul\":2791:2792   */\n      0x00\n        /* \"#utility.yul\":2782:2788   */\n      dup4\n        /* \"#utility.yul\":2777:2780   */\n      dup4\n        /* \"#utility.yul\":2773:2789   */\n      add\n        /* \"#utility.yul\":2766:2793   */\n      mstore\n        /* \"#utility.yul\":2653:2799   */\n      pop\n      pop\n      pop\n      jump\t// out\n        /* \"#utility.yul\":2805:3230   */\n    tag_83:\n        /* \"#utility.yul\":2883:2888   */\n      0x00\n        /* \"#utility.yul\":2908:2974   */\n      tag_155\n        /* \"#utility.yul\":2924:2973   */\n      tag_156\n        /* \"#utility.yul\":2966:2972   */\n      dup5\n        /* \"#utility.yul\":2924:2973   */\n      tag_81\n      jump\t// in\n    tag_156:\n        /* \"#utility.yul\":2908:2974   */\n      tag_80\n      jump\t// in\n    tag_155:\n        /* \"#utility.yul\":2899:2974   */\n      swap1\n      pop\n        /* \"#utility.yul\":2997:3003   */\n      dup3\n        /* \"#utility.yul\":2990:2995   */\n      dup2\n        /* \"#utility.yul\":2983:3004   */\n      mstore\n        /* \"#utility.yul\":3035:3039   */\n      0x20\n        /* \"#utility.yul\":3028:3033   */\n      dup2\n        /* \"#utility.yul\":3024:3040   */\n      add\n        /* \"#utility.yul\":3073:3076   */\n      dup5\n        /* \"#utility.yul\":3064:3070   */\n      dup5\n        /* \"#utility.yul\":3059:3062   */\n      dup5\n        /* \"#utility.yul\":3055:3071   */\n      add\n        /* \"#utility.yul\":3052:3077   */\n      gt\n        /* \"#utility.yul\":3049:3161   */\n      iszero\n      tag_157\n      jumpi\n        /* \"#utility.yul\":3080:3159   */\n      tag_158\n      tag_76\n      jump\t// in\n    tag_158:\n        /* \"#utility.yul\":3049:3161   */\n    tag_157:\n        /* \"#utility.yul\":3170:3224   */\n      tag_159\n        /* \"#utility.yul\":3217:3223   */\n      dup5\n        /* \"#utility.yul\":3212:3215   */\n      dup3\n        /* \"#utility.yul\":3207:3210   */\n      dup6\n        /* \"#utility.yul\":3170:3224   */\n      tag_82\n      jump\t// in\n    tag_159:\n        /* \"#utility.yul\":2889:3230   */\n      pop\n        /* \"#utility.yul\":2805:3230   */\n      swap4\n      swap3\n      pop\n      pop\n      pop\n      jump\t// out\n        /* \"#utility.yul\":3250:3590   */\n    tag_84:\n        /* \"#utility.yul\":3306:3311   */\n      0x00\n        /* \"#utility.yul\":3355:3358   */\n      dup3\n        /* \"#utility.yul\":3348:3352   */\n      0x1f\n        /* \"#utility.yul\":3340:3346   */\n      dup4\n        /* \"#utility.yul\":3336:3353   */\n      add\n        /* \"#utility.yul\":3332:3359   */\n      slt\n        /* \"#utility.yul\":3322:3444   */\n      tag_161\n      jumpi\n        /* \"#utility.yul\":3363:3442   */\n      tag_162\n      tag_75\n      jump\t// in\n    tag_162:\n        /* \"#utility.yul\":3322:3444   */\n    tag_161:\n        /* \"#utility.yul\":3480:3486   */\n      dup2\n        /* \"#utility.yul\":3467:3487   */\n      calldataload\n        /* \"#utility.yul\":3505:3584   */\n      tag_163\n        /* \"#utility.yul\":3580:3583   */\n      dup5\n        /* \"#utility.yul\":3572:3578   */\n      dup3\n        /* \"#utility.yul\":3565:3569   */\n      0x20\n        /* \"#utility.yul\":3557:3563   */\n      dup7\n        /* \"#utility.yul\":3553:3570   */\n      add\n        /* \"#utility.yul\":3505:3584   */\n      tag_83\n      jump\t// in\n    tag_163:\n        /* \"#utility.yul\":3496:3584   */\n      swap2\n      pop\n        /* \"#utility.yul\":3312:3590   */\n      pop\n        /* \"#utility.yul\":3250:3590   */\n      swap3\n      swap2\n      pop\n      pop\n      jump\t// out\n        /* \"#utility.yul\":3596:5227   */\n    tag_18:\n        /* \"#utility.yul\":3731:3737   */\n      0x00\n        /* \"#utility.yul\":3739:3745   */\n      dup1\n        /* \"#utility.yul\":3747:3753   */\n      0x00\n        /* \"#utility.yul\":3755:3761   */\n      dup1\n        /* \"#utility.yul\":3763:3769   */\n      0x00\n        /* \"#utility.yul\":3812:3815   */\n      0xa0\n        /* \"#utility.yul\":3800:3809   */\n      dup7\n        /* \"#utility.yul\":3791:3798   */\n      dup9\n        /* \"#utility.yul\":3787:3810   */\n      sub\n        /* \"#utility.yul\":3783:3816   */\n      slt\n        /* \"#utility.yul\":3780:3900   */\n      iszero\n      tag_165\n      jumpi\n        /* \"#utility.yul\":3819:3898   */\n      tag_166\n      tag_71\n      jump\t// in\n    tag_166:\n        /* \"#utility.yul\":3780:3900   */\n    tag_165:\n        /* \"#utility.yul\":3967:3968   */\n      0x00\n        /* \"#utility.yul\":3956:3965   */\n      dup7\n        /* \"#utility.yul\":3952:3969   */\n      add\n        /* \"#utility.yul\":3939:3970   */\n      calldataload\n        /* \"#utility.yul\":3997:4015   */\n      0xffffffffffffffff\n        /* \"#utility.yul\":3989:3995   */\n      dup2\n        /* \"#utility.yul\":3986:4016   */\n      gt\n        /* \"#utility.yul\":3983:4100   */\n      iszero\n      tag_167\n      jumpi\n        /* \"#utility.yul\":4019:4098   */\n      tag_168\n      tag_72\n      jump\t// in\n    tag_168:\n        /* \"#utility.yul\":3983:4100   */\n    tag_167:\n        /* \"#utility.yul\":4124:4187   */\n      tag_169\n        /* \"#utility.yul\":4179:4186   */\n      dup9\n        /* \"#utility.yul\":4170:4176   */\n      dup3\n        /* \"#utility.yul\":4159:4168   */\n      dup10\n        /* \"#utility.yul\":4155:4177   */\n      add\n        /* \"#utility.yul\":4124:4187   */\n      tag_84\n      jump\t// in\n    tag_169:\n        /* \"#utility.yul\":4114:4187   */\n      swap6\n      pop\n        /* \"#utility.yul\":3910:4197   */\n      pop\n        /* \"#utility.yul\":4264:4266   */\n      0x20\n        /* \"#utility.yul\":4253:4262   */\n      dup7\n        /* \"#utility.yul\":4249:4267   */\n      add\n        /* \"#utility.yul\":4236:4268   */\n      calldataload\n        /* \"#utility.yul\":4295:4313   */\n      0xffffffffffffffff\n        /* \"#utility.yul\":4287:4293   */\n      dup2\n        /* \"#utility.yul\":4284:4314   */\n      gt\n        /* \"#utility.yul\":4281:4398   */\n      iszero\n      tag_170\n      jumpi\n        /* \"#utility.yul\":4317:4396   */\n      tag_171\n      tag_72\n      jump\t// in\n    tag_171:\n        /* \"#utility.yul\":4281:4398   */\n    tag_170:\n        /* \"#utility.yul\":4422:4485   */\n      tag_172\n        /* \"#utility.yul\":4477:4484   */\n      dup9\n        /* \"#utility.yul\":4468:4474   */\n      dup3\n        /* \"#utility.yul\":4457:4466   */\n      dup10\n        /* \"#utility.yul\":4453:4475   */\n      add\n        /* \"#utility.yul\":4422:4485   */\n      tag_84\n      jump\t// in\n    tag_172:\n        /* \"#utility.yul\":4412:4485   */\n      swap5\n      pop\n        /* \"#utility.yul\":4207:4495   */\n      pop\n        /* \"#utility.yul\":4562:4564   */\n      0x40\n        /* \"#utility.yul\":4551:4560   */\n      dup7\n        /* \"#utility.yul\":4547:4565   */\n      add\n        /* \"#utility.yul\":4534:4566   */\n      calldataload\n        /* \"#utility.yul\":4593:4611   */\n      0xffffffffffffffff\n        /* \"#utility.yul\":4585:4591   */\n      dup2\n        /* \"#utility.yul\":4582:4612   */\n      gt\n        /* \"#utility.yul\":4579:4696   */\n      iszero\n      tag_173\n      jumpi\n        /* \"#utility.yul\":4615:4694   */\n      tag_174\n      tag_72\n      jump\t// in\n    tag_174:\n        /* \"#utility.yul\":4579:4696   */\n    tag_173:\n        /* \"#utility.yul\":4720:4783   */\n      tag_175\n        /* \"#utility.yul\":4775:4782   */\n      dup9\n        /* \"#utility.yul\":4766:4772   */\n      dup3\n        /* \"#utility.yul\":4755:4764   */\n      dup10\n        /* \"#utility.yul\":4751:4773   */\n      add\n        /* \"#utility.yul\":4720:4783   */\n      tag_84\n      jump\t// in\n    tag_175:\n        /* \"#utility.yul\":4710:4783   */\n      swap4\n      pop\n        /* \"#utility.yul\":4505:4793   */\n      pop\n        /* \"#utility.yul\":4860:4862   */\n      0x60\n        /* \"#utility.yul\":4849:4858   */\n      dup7\n        /* \"#utility.yul\":4845:4863   */\n      add\n        /* \"#utility.yul\":4832:4864   */\n      calldataload\n        /* \"#utility.yul\":4891:4909   */\n      0xffffffffffffffff\n        /* \"#utility.yul\":4883:4889   */\n      dup2\n        /* \"#utility.yul\":4880:4910   */\n      gt\n        /* \"#utility.yul\":4877:4994   */\n      iszero\n      tag_176\n      jumpi\n        /* \"#utility.yul\":4913:4992   */\n      tag_177\n      tag_72\n      jump\t// in\n    tag_177:\n        /* \"#utility.yul\":4877:4994   */\n    tag_176:\n        /* \"#utility.yul\":5018:5081   */\n      tag_178\n        /* \"#utility.yul\":5073:5080   */\n      dup9\n        /* \"#utility.yul\":5064:5070   */\n      dup3\n        /* \"#utility.yul\":5053:5062   */\n      dup10\n        /* \"#utility.yul\":5049:5071   */\n      add\n        /* \"#utility.yul\":5018:5081   */\n      tag_84\n      jump\t// in\n    tag_178:\n        /* \"#utility.yul\":5008:5081   */\n      swap3\n      pop\n        /* \"#utility.yul\":4803:5091   */\n      pop\n        /* \"#utility.yul\":5130:5133   */\n      0x80\n        /* \"#utility.yul\":5157:5210   */\n      tag_179\n        /* \"#utility.yul\":5202:5209   */\n      dup9\n        /* \"#utility.yul\":5193:5199   */\n      dup3\n        /* \"#utility.yul\":5182:5191   */\n      dup10\n        /* \"#utility.yul\":5178:5200   */\n      add\n        /* \"#utility.yul\":5157:5210   */\n      tag_74\n      jump\t// in\n    tag_179:\n        /* \"#utility.yul\":5147:5210   */\n      swap2\n      pop\n        /* \"#utility.yul\":5101:5220   */\n      pop\n        /* \"#utility.yul\":3596:5227   */\n      swap3\n      swap6\n      pop\n      swap3\n      swap6\n      swap1\n      swap4\n      pop\n      jump\t// out\n        /* \"#utility.yul\":5233:5359   */\n    tag_85:\n        /* \"#utility.yul\":5270:5277   */\n      0x00\n        /* \"#utility.yul\":5310:5352   */\n      0xffffffffffffffffffffffffffffffffffffffff\n        /* \"#utility.yul\":5303:5308   */\n      dup3\n        /* \"#utility.yul\":5299:5353   */\n      and\n        /* \"#utility.yul\":5288:5353   */\n      swap1\n      pop\n        /* \"#utility.yul\":5233:5359   */\n      swap2\n      swap1\n      pop\n      jump\t// out\n        /* \"#utility.yul\":5365:5469   */\n    tag_86:\n        /* \"#utility.yul\":5410:5417   */\n      0x00\n        /* \"#utility.yul\":5439:5463   */\n      tag_182\n        /* \"#utility.yul\":5457:5462   */\n      dup3\n        /* \"#utility.yul\":5439:5463   */\n      tag_85\n      jump\t// in\n    tag_182:\n        /* \"#utility.yul\":5428:5463   */\n      swap1\n      pop\n        /* \"#utility.yul\":5365:5469   */\n      swap2\n      swap1\n      pop\n      jump\t// out\n        /* \"#utility.yul\":5475:5617   */\n    tag_87:\n        /* \"#utility.yul\":5578:5610   */\n      tag_184\n        /* \"#utility.yul\":5604:5609   */\n      dup2\n        /* \"#utility.yul\":5578:5610   */\n      tag_86\n      jump\t// in\n    tag_184:\n        /* \"#utility.yul\":5573:5576   */\n      dup3\n        /* \"#utility.yul\":5566:5611   */\n      mstore\n        /* \"#utility.yul\":5475:5617   */\n      pop\n      pop\n      jump\t// out\n        /* \"#utility.yul\":5623:5722   */\n    tag_88:\n        /* \"#utility.yul\":5675:5681   */\n      0x00\n        /* \"#utility.yul\":5709:5714   */\n      dup2\n        /* \"#utility.yul\":5703:5715   */\n      mload\n        /* \"#utility.yul\":5693:5715   */\n      swap1\n      pop\n        /* \"#utility.yul\":5623:5722   */\n      swap2\n      swap1\n      pop\n      jump\t// out\n        /* \"#utility.yul\":5728:5897   */\n    tag_89:\n        /* \"#utility.yul\":5812:5823   */\n      0x00\n        /* \"#utility.yul\":5846:5852   */\n      dup3\n        /* \"#utility.yul\":5841:5844   */\n      dup3\n        /* \"#utility.yul\":5834:5853   */\n      mstore\n        /* \"#utility.yul\":5886:5890   */\n      0x20\n        /* \"#utility.yul\":5881:5884   */\n      dup3\n        /* \"#utility.yul\":5877:5891   */\n      add\n        /* \"#utility.yul\":5862:5891   */\n      swap1\n      pop\n        /* \"#utility.yul\":5728:5897   */\n      swap3\n      swap2\n      pop\n      pop\n      jump\t// out\n        /* \"#utility.yul\":5903:6149   */\n    tag_90:\n        /* \"#utility.yul\":5984:5985   */\n      0x00\n        /* \"#utility.yul\":5994:6107   */\n    tag_188:\n        /* \"#utility.yul\":6008:6014   */\n      dup4\n        /* \"#utility.yul\":6005:6006   */\n      dup2\n        /* \"#utility.yul\":6002:6015   */\n      lt\n        /* \"#utility.yul\":5994:6107   */\n      iszero\n      tag_190\n      jumpi\n        /* \"#utility.yul\":6093:6094   */\n      dup1\n        /* \"#utility.yul\":6088:6091   */\n      dup3\n        /* \"#utility.yul\":6084:6095   */\n      add\n        /* \"#utility.yul\":6078:6096   */\n      mload\n        /* \"#utility.yul\":6074:6075   */\n      dup2\n        /* \"#utility.yul\":6069:6072   */\n      dup5\n        /* \"#utility.yul\":6065:6076   */\n      add\n        /* \"#utility.yul\":6058:6097   */\n      mstore\n        /* \"#utility.yul\":6030:6032   */\n      0x20\n        /* \"#utility.yul\":6027:6028   */\n      dup2\n        /* \"#utility.yul\":6023:6033   */\n      add\n        /* \"#utility.yul\":6018:6033   */\n      swap1\n      pop\n        /* \"#utility.yul\":5994:6107   */\n      jump(tag_188)\n    tag_190:\n        /* \"#utility.yul\":6141:6142   */\n      0x00\n        /* \"#utility.yul\":6132:6138   */\n      dup5\n        /* \"#utility.yul\":6127:6130   */\n      dup5\n        /* \"#utility.yul\":6123:6139   */\n      add\n        /* \"#utility.yul\":6116:6143   */\n      mstore\n        /* \"#utility.yul\":5965:6149   */\n      pop\n        /* \"#utility.yul\":5903:6149   */\n      pop\n      pop\n      pop\n      jump\t// out\n        /* \"#utility.yul\":6155:6532   */\n    tag_91:\n        /* \"#utility.yul\":6243:6246   */\n      0x00\n        /* \"#utility.yul\":6271:6310   */\n      tag_192\n        /* \"#utility.yul\":6304:6309   */\n      dup3\n        /* \"#utility.yul\":6271:6310   */\n      tag_88\n      jump\t// in\n    tag_192:\n        /* \"#utility.yul\":6326:6397   */\n      tag_193\n        /* \"#utility.yul\":6390:6396   */\n      dup2\n        /* \"#utility.yul\":6385:6388   */\n      dup6\n        /* \"#utility.yul\":6326:6397   */\n      tag_89\n      jump\t// in\n    tag_193:\n        /* \"#utility.yul\":6319:6397   */\n      swap4\n      pop\n        /* \"#utility.yul\":6406:6471   */\n      tag_194\n        /* \"#utility.yul\":6464:6470   */\n      dup2\n        /* \"#utility.yul\":6459:6462   */\n      dup6\n        /* \"#utility.yul\":6452:6456   */\n      0x20\n        /* \"#utility.yul\":6445:6450   */\n      dup7\n        /* \"#utility.yul\":6441:6457   */\n      add\n        /* \"#utility.yul\":6406:6471   */\n      tag_90\n      jump\t// in\n    tag_194:\n        /* \"#utility.yul\":6496:6525   */\n      tag_195\n        /* \"#utility.yul\":6518:6524   */\n      dup2\n        /* \"#utility.yul\":6496:6525   */\n      tag_77\n      jump\t// in\n    tag_195:\n        /* \"#utility.yul\":6491:6494   */\n      dup5\n        /* \"#utility.yul\":6487:6526   */\n      add\n        /* \"#utility.yul\":6480:6526   */\n      swap2\n      pop\n        /* \"#utility.yul\":6247:6532   */\n      pop\n        /* \"#utility.yul\":6155:6532   */\n      swap3\n      swap2\n      pop\n      pop\n      jump\t// out\n        /* \"#utility.yul\":6538:7820   */\n    tag_25:\n        /* \"#utility.yul\":6895:6899   */\n      0x00\n        /* \"#utility.yul\":6933:6936   */\n      0xe0\n        /* \"#utility.yul\":6922:6931   */\n      dup3\n        /* \"#utility.yul\":6918:6937   */\n      add\n        /* \"#utility.yul\":6910:6937   */\n      swap1\n      pop\n        /* \"#utility.yul\":6947:7034   */\n      tag_197\n        /* \"#utility.yul\":7031:7032   */\n      0x00\n        /* \"#utility.yul\":7020:7029   */\n      dup4\n        /* \"#utility.yul\":7016:7033   */\n      add\n        /* \"#utility.yul\":7007:7013   */\n      dup11\n        /* \"#utility.yul\":6947:7034   */\n      tag_87\n      jump\t// in\n    tag_197:\n        /* \"#utility.yul\":7081:7090   */\n      dup2\n        /* \"#utility.yul\":7075:7079   */\n      dup2\n        /* \"#utility.yul\":7071:7091   */\n      sub\n        /* \"#utility.yul\":7066:7068   */\n      0x20\n        /* \"#utility.yul\":7055:7064   */\n      dup4\n        /* \"#utility.yul\":7051:7069   */\n      add\n        /* \"#utility.yul\":7044:7092   */\n      mstore\n        /* \"#utility.yul\":7109:7187   */\n      tag_198\n        /* \"#utility.yul\":7182:7186   */\n      dup2\n        /* \"#utility.yul\":7173:7179   */\n      dup10\n        /* \"#utility.yul\":7109:7187   */\n      tag_91\n      jump\t// in\n    tag_198:\n        /* \"#utility.yul\":7101:7187   */\n      swap1\n      pop\n        /* \"#utility.yul\":7234:7243   */\n      dup2\n        /* \"#utility.yul\":7228:7232   */\n      dup2\n        /* \"#utility.yul\":7224:7244   */\n      sub\n        /* \"#utility.yul\":7219:7221   */\n      0x40\n        /* \"#utility.yul\":7208:7217   */\n      dup4\n        /* \"#utility.yul\":7204:7222   */\n      add\n        /* \"#utility.yul\":7197:7245   */\n      mstore\n        /* \"#utility.yul\":7262:7340   */\n      tag_199\n        /* \"#utility.yul\":7335:7339   */\n      dup2\n        /* \"#utility.yul\":7326:7332   */\n      dup9\n        /* \"#utility.yul\":7262:7340   */\n      tag_91\n      jump\t// in\n    tag_199:\n        /* \"#utility.yul\":7254:7340   */\n      swap1\n      pop\n        /* \"#utility.yul\":7387:7396   */\n      dup2\n        /* \"#utility.yul\":7381:7385   */\n      dup2\n        /* \"#utility.yul\":7377:7397   */\n      sub\n        /* \"#utility.yul\":7372:7374   */\n      0x60\n        /* \"#utility.yul\":7361:7370   */\n      dup4\n        /* \"#utility.yul\":7357:7375   */\n      add\n        /* \"#utility.yul\":7350:7398   */\n      mstore\n        /* \"#utility.yul\":7415:7493   */\n      tag_200\n        /* \"#utility.yul\":7488:7492   */\n      dup2\n        /* \"#utility.yul\":7479:7485   */\n      dup8\n        /* \"#utility.yul\":7415:7493   */\n      tag_91\n      jump\t// in\n    tag_200:\n        /* \"#utility.yul\":7407:7493   */\n      swap1\n      pop\n        /* \"#utility.yul\":7541:7550   */\n      dup2\n        /* \"#utility.yul\":7535:7539   */\n      dup2\n        /* \"#utility.yul\":7531:7551   */\n      sub\n        /* \"#utility.yul\":7525:7528   */\n      0x80\n        /* \"#utility.yul\":7514:7523   */\n      dup4\n        /* \"#utility.yul\":7510:7529   */\n      add\n        /* \"#utility.yul\":7503:7552   */\n      mstore\n        /* \"#utility.yul\":7569:7647   */\n      tag_201\n        /* \"#utility.yul\":7642:7646   */\n      dup2\n        /* \"#utility.yul\":7633:7639   */\n      dup7\n        /* \"#utility.yul\":7569:7647   */\n      tag_91\n      jump\t// in\n    tag_201:\n        /* \"#utility.yul\":7561:7647   */\n      swap1\n      pop\n        /* \"#utility.yul\":7657:7730   */\n      tag_202\n        /* \"#utility.yul\":7725:7728   */\n      0xa0\n        /* \"#utility.yul\":7714:7723   */\n      dup4\n        /* \"#utility.yul\":7710:7729   */\n      add\n        /* \"#utility.yul\":7701:7707   */\n      dup6\n        /* \"#utility.yul\":7657:7730   */\n      tag_69\n      jump\t// in\n    tag_202:\n        /* \"#utility.yul\":7740:7813   */\n      tag_203\n        /* \"#utility.yul\":7808:7811   */\n      0xc0\n        /* \"#utility.yul\":7797:7806   */\n      dup4\n        /* \"#utility.yul\":7793:7812   */\n      add\n        /* \"#utility.yul\":7784:7790   */\n      dup5\n        /* \"#utility.yul\":7740:7813   */\n      tag_69\n      jump\t// in\n    tag_203:\n        /* \"#utility.yul\":6538:7820   */\n      swap9\n      swap8\n      pop\n      pop\n      pop\n      pop\n      pop\n      pop\n      pop\n      pop\n      jump\t// out\n        /* \"#utility.yul\":7826:7922   */\n    tag_92:\n        /* \"#utility.yul\":7863:7870   */\n      0x00\n        /* \"#utility.yul\":7892:7916   */\n      tag_205\n        /* \"#utility.yul\":7910:7915   */\n      dup3\n        /* \"#utility.yul\":7892:7916   */\n      tag_85\n      jump\t// in\n    tag_205:\n        /* \"#utility.yul\":7881:7916   */\n      swap1\n      pop\n        /* \"#utility.yul\":7826:7922   */\n      swap2\n      swap1\n      pop\n      jump\t// out\n        /* \"#utility.yul\":7928:8046   */\n    tag_93:\n        /* \"#utility.yul\":8015:8039   */\n      tag_207\n        /* \"#utility.yul\":8033:8038   */\n      dup2\n        /* \"#utility.yul\":8015:8039   */\n      tag_92\n      jump\t// in\n    tag_207:\n        /* \"#utility.yul\":8010:8013   */\n      dup3\n        /* \"#utility.yul\":8003:8040   */\n      mstore\n        /* \"#utility.yul\":7928:8046   */\n      pop\n      pop\n      jump\t// out\n        /* \"#utility.yul\":8052:8112   */\n    tag_94:\n        /* \"#utility.yul\":8080:8083   */\n      0x00\n        /* \"#utility.yul\":8101:8106   */\n      dup2\n        /* \"#utility.yul\":8094:8106   */\n      swap1\n      pop\n        /* \"#utility.yul\":8052:8112   */\n      swap2\n      swap1\n      pop\n      jump\t// out\n        /* \"#utility.yul\":8118:8260   */\n    tag_95:\n        /* \"#utility.yul\":8168:8177   */\n      0x00\n        /* \"#utility.yul\":8201:8254   */\n      tag_210\n        /* \"#utility.yul\":8219:8253   */\n      tag_211\n        /* \"#utility.yul\":8228:8252   */\n      tag_212\n        /* \"#utility.yul\":8246:8251   */\n      dup5\n        /* \"#utility.yul\":8228:8252   */\n      tag_85\n      jump\t// in\n    tag_212:\n        /* \"#utility.yul\":8219:8253   */\n      tag_94\n      jump\t// in\n    tag_211:\n        /* \"#utility.yul\":8201:8254   */\n      tag_85\n      jump\t// in\n    tag_210:\n        /* \"#utility.yul\":8188:8254   */\n      swap1\n      pop\n        /* \"#utility.yul\":8118:8260   */\n      swap2\n      swap1\n      pop\n      jump\t// out\n        /* \"#utility.yul\":8266:8392   */\n    tag_96:\n        /* \"#utility.yul\":8316:8325   */\n      0x00\n        /* \"#utility.yul\":8349:8386   */\n      tag_214\n        /* \"#utility.yul\":8380:8385   */\n      dup3\n        /* \"#utility.yul\":8349:8386   */\n      tag_95\n      jump\t// in\n    tag_214:\n        /* \"#utility.yul\":8336:8386   */\n      swap1\n      pop\n        /* \"#utility.yul\":8266:8392   */\n      swap2\n      swap1\n      pop\n      jump\t// out\n        /* \"#utility.yul\":8398:8532   */\n    tag_97:\n        /* \"#utility.yul\":8456:8465   */\n      0x00\n        /* \"#utility.yul\":8489:8526   */\n      tag_216\n        /* \"#utility.yul\":8520:8525   */\n      dup3\n        /* \"#utility.yul\":8489:8526   */\n      tag_96\n      jump\t// in\n    tag_216:\n        /* \"#utility.yul\":8476:8526   */\n      swap1\n      pop\n        /* \"#utility.yul\":8398:8532   */\n      swap2\n      swap1\n      pop\n      jump\t// out\n        /* \"#utility.yul\":8538:8685   */\n    tag_98:\n        /* \"#utility.yul\":8633:8678   */\n      tag_218\n        /* \"#utility.yul\":8672:8677   */\n      dup2\n        /* \"#utility.yul\":8633:8678   */\n      tag_97\n      jump\t// in\n    tag_218:\n        /* \"#utility.yul\":8628:8631   */\n      dup3\n        /* \"#utility.yul\":8621:8679   */\n      mstore\n        /* \"#utility.yul\":8538:8685   */\n      pop\n      pop\n      jump\t// out\n        /* \"#utility.yul\":8691:9149   */\n    tag_29:\n        /* \"#utility.yul\":8848:8852   */\n      0x00\n        /* \"#utility.yul\":8886:8888   */\n      0x60\n        /* \"#utility.yul\":8875:8884   */\n      dup3\n        /* \"#utility.yul\":8871:8889   */\n      add\n        /* \"#utility.yul\":8863:8889   */\n      swap1\n      pop\n        /* \"#utility.yul\":8899:8970   */\n      tag_220\n        /* \"#utility.yul\":8967:8968   */\n      0x00\n        /* \"#utility.yul\":8956:8965   */\n      dup4\n        /* \"#utility.yul\":8952:8969   */\n      add\n        /* \"#utility.yul\":8943:8949   */\n      dup7\n        /* \"#utility.yul\":8899:8970   */\n      tag_93\n      jump\t// in\n    tag_220:\n        /* \"#utility.yul\":8980:9060   */\n      tag_221\n        /* \"#utility.yul\":9056:9058   */\n      0x20\n        /* \"#utility.yul\":9045:9054   */\n      dup4\n        /* \"#utility.yul\":9041:9059   */\n      add\n        /* \"#utility.yul\":9032:9038   */\n      dup6\n        /* \"#utility.yul\":8980:9060   */\n      tag_98\n      jump\t// in\n    tag_221:\n        /* \"#utility.yul\":9070:9142   */\n      tag_222\n        /* \"#utility.yul\":9138:9140   */\n      0x40\n        /* \"#utility.yul\":9127:9136   */\n      dup4\n        /* \"#utility.yul\":9123:9141   */\n      add\n        /* \"#utility.yul\":9114:9120   */\n      dup5\n        /* \"#utility.yul\":9070:9142   */\n      tag_69\n      jump\t// in\n    tag_222:\n        /* \"#utility.yul\":8691:9149   */\n      swap5\n      swap4\n      pop\n      pop\n      pop\n      pop\n      jump\t// out\n        /* \"#utility.yul\":9155:9245   */\n    tag_99:\n        /* \"#utility.yul\":9189:9196   */\n      0x00\n        /* \"#utility.yul\":9232:9237   */\n      dup2\n        /* \"#utility.yul\":9225:9238   */\n      iszero\n        /* \"#utility.yul\":9218:9239   */\n      iszero\n        /* \"#utility.yul\":9207:9239   */\n      swap1\n      pop\n        /* \"#utility.yul\":9155:9245   */\n      swap2\n      swap1\n      pop\n      jump\t// out\n        /* \"#utility.yul\":9251:9367   */\n    tag_100:\n        /* \"#utility.yul\":9321:9342   */\n      tag_225\n        /* \"#utility.yul\":9336:9341   */\n      dup2\n        /* \"#utility.yul\":9321:9342   */\n      tag_99\n      jump\t// in\n    tag_225:\n        /* \"#utility.yul\":9314:9319   */\n      dup2\n        /* \"#utility.yul\":9311:9343   */\n      eq\n        /* \"#utility.yul\":9301:9361   */\n      tag_226\n      jumpi\n        /* \"#utility.yul\":9357:9358   */\n      0x00\n        /* \"#utility.yul\":9354:9355   */\n      dup1\n        /* \"#utility.yul\":9347:9359   */\n      revert\n        /* \"#utility.yul\":9301:9361   */\n    tag_226:\n        /* \"#utility.yul\":9251:9367   */\n      pop\n      jump\t// out\n        /* \"#utility.yul\":9373:9510   */\n    tag_101:\n        /* \"#utility.yul\":9427:9432   */\n      0x00\n        /* \"#utility.yul\":9458:9464   */\n      dup2\n        /* \"#utility.yul\":9452:9465   */\n      mload\n        /* \"#utility.yul\":9443:9465   */\n      swap1\n      pop\n        /* \"#utility.yul\":9474:9504   */\n      tag_228\n        /* \"#utility.yul\":9498:9503   */\n      dup2\n        /* \"#utility.yul\":9474:9504   */\n      tag_100\n      jump\t// in\n    tag_228:\n        /* \"#utility.yul\":9373:9510   */\n      swap3\n      swap2\n      pop\n      pop\n      jump\t// out\n        /* \"#utility.yul\":9516:9861   */\n    tag_33:\n        /* \"#utility.yul\":9583:9589   */\n      0x00\n        /* \"#utility.yul\":9632:9634   */\n      0x20\n        /* \"#utility.yul\":9620:9629   */\n      dup3\n        /* \"#utility.yul\":9611:9618   */\n      dup5\n        /* \"#utility.yul\":9607:9630   */\n      sub\n        /* \"#utility.yul\":9603:9635   */\n      slt\n        /* \"#utility.yul\":9600:9719   */\n      iszero\n      tag_230\n      jumpi\n        /* \"#utility.yul\":9638:9717   */\n      tag_231\n      tag_71\n      jump\t// in\n    tag_231:\n        /* \"#utility.yul\":9600:9719   */\n    tag_230:\n        /* \"#utility.yul\":9758:9759   */\n      0x00\n        /* \"#utility.yul\":9783:9844   */\n      tag_232\n        /* \"#utility.yul\":9836:9843   */\n      dup5\n        /* \"#utility.yul\":9827:9833   */\n      dup3\n        /* \"#utility.yul\":9816:9825   */\n      dup6\n        /* \"#utility.yul\":9812:9834   */\n      add\n        /* \"#utility.yul\":9783:9844   */\n      tag_101\n      jump\t// in\n    tag_232:\n        /* \"#utility.yul\":9773:9844   */\n      swap2\n      pop\n        /* \"#utility.yul\":9729:9854   */\n      pop\n        /* \"#utility.yul\":9516:9861   */\n      swap3\n      swap2\n      pop\n      pop\n      jump\t// out\n        /* \"#utility.yul\":9867:10033   */\n    tag_102:\n        /* \"#utility.yul\":10007:10025   */\n      0x5472616e73666572206661696c65642e00000000000000000000000000000000\n        /* \"#utility.yul\":10003:10004   */\n      0x00\n        /* \"#utility.yul\":9995:10001   */\n      dup3\n        /* \"#utility.yul\":9991:10005   */\n      add\n        /* \"#utility.yul\":9984:10026   */\n      mstore\n        /* \"#utility.yul\":9867:10033   */\n      pop\n      jump\t// out\n        /* \"#utility.yul\":10039:10405   */\n    tag_103:\n        /* \"#utility.yul\":10181:10184   */\n      0x00\n        /* \"#utility.yul\":10202:10269   */\n      tag_235\n        /* \"#utility.yul\":10266:10268   */\n      0x10\n        /* \"#utility.yul\":10261:10264   */\n      dup4\n        /* \"#utility.yul\":10202:10269   */\n      tag_89\n      jump\t// in\n    tag_235:\n        /* \"#utility.yul\":10195:10269   */\n      swap2\n      pop\n        /* \"#utility.yul\":10278:10371   */\n      tag_236\n        /* \"#utility.yul\":10367:10370   */\n      dup3\n        /* \"#utility.yul\":10278:10371   */\n      tag_102\n      jump\t// in\n    tag_236:\n        /* \"#utility.yul\":10396:10398   */\n      0x20\n        /* \"#utility.yul\":10391:10394   */\n      dup3\n        /* \"#utility.yul\":10387:10399   */\n      add\n        /* \"#utility.yul\":10380:10399   */\n      swap1\n      pop\n        /* \"#utility.yul\":10039:10405   */\n      swap2\n      swap1\n      pop\n      jump\t// out\n        /* \"#utility.yul\":10411:10830   */\n    tag_36:\n        /* \"#utility.yul\":10577:10581   */\n      0x00\n        /* \"#utility.yul\":10615:10617   */\n      0x20\n        /* \"#utility.yul\":10604:10613   */\n      dup3\n        /* \"#utility.yul\":10600:10618   */\n      add\n        /* \"#utility.yul\":10592:10618   */\n      swap1\n      pop\n        /* \"#utility.yul\":10664:10673   */\n      dup2\n        /* \"#utility.yul\":10658:10662   */\n      dup2\n        /* \"#utility.yul\":10654:10674   */\n      sub\n        /* \"#utility.yul\":10650:10651   */\n      0x00\n        /* \"#utility.yul\":10639:10648   */\n      dup4\n        /* \"#utility.yul\":10635:10652   */\n      add\n        /* \"#utility.yul\":10628:10675   */\n      mstore\n        /* \"#utility.yul\":10692:10823   */\n      tag_238\n        /* \"#utility.yul\":10818:10822   */\n      dup2\n        /* \"#utility.yul\":10692:10823   */\n      tag_103\n      jump\t// in\n    tag_238:\n        /* \"#utility.yul\":10684:10823   */\n      swap1\n      pop\n        /* \"#utility.yul\":10411:10830   */\n      swap2\n      swap1\n      pop\n      jump\t// out\n        /* \"#utility.yul\":10836:11016   */\n    tag_104:\n        /* \"#utility.yul\":10884:10961   */\n      0x4e487b7100000000000000000000000000000000000000000000000000000000\n        /* \"#utility.yul\":10881:10882   */\n      0x00\n        /* \"#utility.yul\":10874:10962   */\n      mstore\n        /* \"#utility.yul\":10981:10985   */\n      0x11\n        /* \"#utility.yul\":10978:10979   */\n      0x04\n        /* \"#utility.yul\":10971:10986   */\n      mstore\n        /* \"#utility.yul\":11005:11009   */\n      0x24\n        /* \"#utility.yul\":11002:11003   */\n      0x00\n        /* \"#utility.yul\":10995:11010   */\n      revert\n        /* \"#utility.yul\":11022:11255   */\n    tag_38:\n        /* \"#utility.yul\":11061:11064   */\n      0x00\n        /* \"#utility.yul\":11084:11108   */\n      tag_241\n        /* \"#utility.yul\":11102:11107   */\n      dup3\n        /* \"#utility.yul\":11084:11108   */\n      tag_68\n      jump\t// in\n    tag_241:\n        /* \"#utility.yul\":11075:11108   */\n      swap2\n      pop\n        /* \"#utility.yul\":11130:11196   */\n      0xffffffffffffffffffffffffffffffffffffffffffffffffffffffffffffffff\n        /* \"#utility.yul\":11123:11128   */\n      dup3\n        /* \"#utility.yul\":11120:11197   */\n      sub\n        /* \"#utility.yul\":11117:11220   */\n      tag_242\n      jumpi\n        /* \"#utility.yul\":11200:11218   */\n      tag_243\n      tag_104\n      jump\t// in\n    tag_243:\n        /* \"#utility.yul\":11117:11220   */\n    tag_242:\n        /* \"#utility.yul\":11247:11248   */\n      0x01\n        /* \"#utility.yul\":11240:11245   */\n      dup3\n        /* \"#utility.yul\":11236:11249   */\n      add\n        /* \"#utility.yul\":11229:11249   */\n      swap1\n      pop\n        /* \"#utility.yul\":11022:11255   */\n      swap2\n      swap1\n      pop\n      jump\t// out\n        /* \"#utility.yul\":11261:11441   */\n    tag_105:\n        /* \"#utility.yul\":11309:11386   */\n      0x4e487b7100000000000000000000000000000000000000000000000000000000\n        /* \"#utility.yul\":11306:11307   */\n      0x00\n        /* \"#utility.yul\":11299:11387   */\n      mstore\n        /* \"#utility.yul\":11406:11410   */\n      0x22\n        /* \"#utility.yul\":11403:11404   */\n      0x04\n        /* \"#utility.yul\":11396:11411   */\n      mstore\n        /* \"#utility.yul\":11430:11434   */\n      0x24\n        /* \"#utility.yul\":11427:11428   */\n      0x00\n        /* \"#utility.yul\":11420:11435   */\n      revert\n        /* \"#utility.yul\":11447:11767   */\n    tag_48:\n        /* \"#utility.yul\":11491:11497   */\n      0x00\n        /* \"#utility.yul\":11528:11529   */\n      0x02\n        /* \"#utility.yul\":11522:11526   */\n      dup3\n        /* \"#utility.yul\":11518:11530   */\n      div\n        /* \"#utility.yul\":11508:11530   */\n      swap1\n      pop\n        /* \"#utility.yul\":11575:11576   */\n      0x01\n        /* \"#utility.yul\":11569:11573   */\n      dup3\n        /* \"#utility.yul\":11565:11577   */\n      and\n        /* \"#utility.yul\":11596:11614   */\n      dup1\n        /* \"#utility.yul\":11586:11667   */\n      tag_246\n      jumpi\n        /* \"#utility.yul\":11652:11656   */\n      0x7f\n        /* \"#utility.yul\":11644:11650   */\n      dup3\n        /* \"#utility.yul\":11640:11657   */\n      and\n        /* \"#utility.yul\":11630:11657   */\n      swap2\n      pop\n        /* \"#utility.yul\":11586:11667   */\n    tag_246:\n        /* \"#utility.yul\":11714:11716   */\n      0x20\n        /* \"#utility.yul\":11706:11712   */\n      dup3\n        /* \"#utility.yul\":11703:11717   */\n      lt\n        /* \"#utility.yul\":11683:11701   */\n      dup2\n        /* \"#utility.yul\":11680:11718   */\n      sub\n        /* \"#utility.yul\":11677:11761   */\n      tag_247\n      jumpi\n        /* \"#utility.yul\":11733:11751   */\n      tag_248\n      tag_105\n      jump\t// in\n    tag_248:\n        /* \"#utility.yul\":11677:11761   */\n    tag_247:\n        /* \"#utility.yul\":11498:11767   */\n      pop\n        /* \"#utility.yul\":11447:11767   */\n      swap2\n      swap1\n      pop\n      jump\t// out\n        /* \"#utility.yul\":11773:11914   */\n    tag_106:\n        /* \"#utility.yul\":11822:11826   */\n      0x00\n        /* \"#utility.yul\":11845:11848   */\n      dup2\n        /* \"#utility.yul\":11837:11848   */\n      swap1\n      pop\n        /* \"#utility.yul\":11868:11871   */\n      dup2\n        /* \"#utility.yul\":11865:11866   */\n      0x00\n        /* \"#utility.yul\":11858:11872   */\n      mstore\n        /* \"#utility.yul\":11902:11906   */\n      0x20\n        /* \"#utility.yul\":11899:11900   */\n      0x00\n        /* \"#utility.yul\":11889:11907   */\n      keccak256\n        /* \"#utility.yul\":11881:11907   */\n      swap1\n      pop\n        /* \"#utility.yul\":11773:11914   */\n      swap2\n      swap1\n      pop\n      jump\t// out\n        /* \"#utility.yul\":11920:12013   */\n    tag_107:\n        /* \"#utility.yul\":11957:11963   */\n      0x00\n        /* \"#utility.yul\":12004:12006   */\n      0x20\n        /* \"#utility.yul\":11999:12001   */\n      0x1f\n        /* \"#utility.yul\":11992:11997   */\n      dup4\n        /* \"#utility.yul\":11988:12002   */\n      add\n        /* \"#utility.yul\":11984:12007   */\n      div\n        /* \"#utility.yul\":11974:12007   */\n      swap1\n      pop\n        /* \"#utility.yul\":11920:12013   */\n      swap2\n      swap1\n      pop\n      jump\t// out\n        /* \"#utility.yul\":12019:12126   */\n    tag_108:\n        /* \"#utility.yul\":12063:12071   */\n      0x00\n        /* \"#utility.yul\":12113:12118   */\n      dup3\n        /* \"#utility.yul\":12107:12111   */\n      dup3\n        /* \"#utility.yul\":12103:12119   */\n      shl\n        /* \"#utility.yul\":12082:12119   */\n      swap1\n      pop\n        /* \"#utility.yul\":12019:12126   */\n      swap3\n      swap2\n      pop\n      pop\n      jump\t// out\n        /* \"#utility.yul\":12132:12525   */\n    tag_109:\n        /* \"#utility.yul\":12201:12207   */\n      0x00\n        /* \"#utility.yul\":12251:12252   */\n      0x08\n        /* \"#utility.yul\":12239:12249   */\n      dup4\n        /* \"#utility.yul\":12235:12253   */\n      mul\n        /* \"#utility.yul\":12274:12371   */\n      tag_253\n        /* \"#utility.yul\":12304:12370   */\n      0xffffffffffffffffffffffffffffffffffffffffffffffffffffffffffffffff\n        /* \"#utility.yul\":12293:12302   */\n      dup3\n        /* \"#utility.yul\":12274:12371   */\n      tag_108\n      jump\t// in\n    tag_253:\n        /* \"#utility.yul\":12392:12431   */\n      tag_254\n        /* \"#utility.yul\":12422:12430   */\n      dup7\n        /* \"#utility.yul\":12411:12420   */\n      dup4\n        /* \"#utility.yul\":12392:12431   */\n      tag_108\n      jump\t// in\n    tag_254:\n        /* \"#utility.yul\":12380:12431   */\n      swap6\n      pop\n        /* \"#utility.yul\":12464:12468   */\n      dup1\n        /* \"#utility.yul\":12460:12469   */\n      not\n        /* \"#utility.yul\":12453:12458   */\n      dup5\n        /* \"#utility.yul\":12449:12470   */\n      and\n        /* \"#utility.yul\":12440:12470   */\n      swap4\n      pop\n        /* \"#utility.yul\":12513:12517   */\n      dup1\n        /* \"#utility.yul\":12503:12511   */\n      dup7\n        /* \"#utility.yul\":12499:12518   */\n      and\n        /* \"#utility.yul\":12492:12497   */\n      dup5\n        /* \"#utility.yul\":12489:12519   */\n      or\n        /* \"#utility.yul\":12479:12519   */\n      swap3\n      pop\n        /* \"#utility.yul\":12208:12525   */\n      pop\n      pop\n        /* \"#utility.yul\":12132:12525   */\n      swap4\n      swap3\n      pop\n      pop\n      pop\n      jump\t// out\n        /* \"#utility.yul\":12531:12673   */\n    tag_110:\n        /* \"#utility.yul\":12581:12590   */\n      0x00\n        /* \"#utility.yul\":12614:12667   */\n      tag_256\n        /* \"#utility.yul\":12632:12666   */\n      tag_257\n        /* \"#utility.yul\":12641:12665   */\n      tag_258\n        /* \"#utility.yul\":12659:12664   */\n      dup5\n        /* \"#utility.yul\":12641:12665   */\n      tag_68\n      jump\t// in\n    tag_258:\n        /* \"#utility.yul\":12632:12666   */\n      tag_94\n      jump\t// in\n    tag_257:\n        /* \"#utility.yul\":12614:12667   */\n      tag_68\n      jump\t// in\n    tag_256:\n        /* \"#utility.yul\":12601:12667   */\n      swap1\n      pop\n        /* \"#utility.yul\":12531:12673   */\n      swap2\n      swap1\n      pop\n      jump\t// out\n        /* \"#utility.yul\":12679:12754   */\n    tag_111:\n        /* \"#utility.yul\":12722:12725   */\n      0x00\n        /* \"#utility.yul\":12743:12748   */\n      dup2\n        /* \"#utility.yul\":12736:12748   */\n      swap1\n      pop\n        /* \"#utility.yul\":12679:12754   */\n      swap2\n      swap1\n      pop\n      jump\t// out\n        /* \"#utility.yul\":12760:13029   */\n    tag_112:\n        /* \"#utility.yul\":12870:12909   */\n      tag_261\n        /* \"#utility.yul\":12901:12908   */\n      dup4\n        /* \"#utility.yul\":12870:12909   */\n      tag_110\n      jump\t// in\n    tag_261:\n        /* \"#utility.yul\":12931:13022   */\n      tag_262\n        /* \"#utility.yul\":12980:13021   */\n      tag_263\n        /* \"#utility.yul\":13004:13020   */\n      dup3\n        /* \"#utility.yul\":12980:13021   */\n      tag_111\n      jump\t// in\n    tag_263:\n        /* \"#utility.yul\":12972:12978   */\n      dup5\n        /* \"#utility.yul\":12965:12969   */\n      dup5\n        /* \"#utility.yul\":12959:12970   */\n      sload\n        /* \"#utility.yul\":12931:13022   */\n      tag_109\n      jump\t// in\n    tag_262:\n        /* \"#utility.yul\":12925:12929   */\n      dup3\n        /* \"#utility.yul\":12918:13023   */\n      sstore\n        /* \"#utility.yul\":12836:13029   */\n      pop\n        /* \"#utility.yul\":12760:13029   */\n      pop\n      pop\n      pop\n      jump\t// out\n        /* \"#utility.yul\":13035:13108   */\n    tag_113:\n        /* \"#utility.yul\":13080:13083   */\n      0x00\n        /* \"#utility.yul\":13035:13108   */\n      swap1\n      jump\t// out\n        /* \"#utility.yul\":13114:13303   */\n    tag_114:\n        /* \"#utility.yul\":13191:13223   */\n      tag_266\n      tag_113\n      jump\t// in\n    tag_266:\n        /* \"#utility.yul\":13232:13297   */\n      tag_267\n        /* \"#utility.yul\":13290:13296   */\n      dup2\n        /* \"#utility.yul\":13282:13288   */\n      dup5\n        /* \"#utility.yul\":13276:13280   */\n      dup5\n        /* \"#utility.yul\":13232:13297   */\n      tag_112\n      jump\t// in\n    tag_267:\n        /* \"#utility.yul\":13167:13303   */\n      pop\n        /* \"#utility.yul\":13114:13303   */\n      pop\n      pop\n      jump\t// out\n        /* \"#utility.yul\":13309:13495   */\n    tag_115:\n        /* \"#utility.yul\":13369:13489   */\n    tag_269:\n        /* \"#utility.yul\":13386:13389   */\n      dup2\n        /* \"#utility.yul\":13379:13384   */\n      dup2\n        /* \"#utility.yul\":13376:13390   */\n      lt\n        /* \"#utility.yul\":13369:13489   */\n      iszero\n      tag_271\n      jumpi\n        /* \"#utility.yul\":13440:13479   */\n      tag_272\n        /* \"#utility.yul\":13477:13478   */\n      0x00\n        /* \"#utility.yul\":13470:13475   */\n      dup3\n        /* \"#utility.yul\":13440:13479   */\n      tag_114\n      jump\t// in\n    tag_272:\n        /* \"#utility.yul\":13413:13414   */\n      0x01\n        /* \"#utility.yul\":13406:13411   */\n      dup2\n        /* \"#utility.yul\":13402:13415   */\n      add\n        /* \"#utility.yul\":13393:13415   */\n      swap1\n      pop\n        /* \"#utility.yul\":13369:13489   */\n      jump(tag_269)\n    tag_271:\n        /* \"#utility.yul\":13309:13495   */\n      pop\n      pop\n      jump\t// out\n        /* \"#utility.yul\":13501:14044   */\n    tag_116:\n        /* \"#utility.yul\":13602:13604   */\n      0x1f\n        /* \"#utility.yul\":13597:13600   */\n      dup3\n        /* \"#utility.yul\":13594:13605   */\n      gt\n        /* \"#utility.yul\":13591:14037   */\n      iszero\n      tag_274\n      jumpi\n        /* \"#utility.yul\":13636:13674   */\n      tag_275\n        /* \"#utility.yul\":13668:13673   */\n      dup2\n        /* \"#utility.yul\":13636:13674   */\n      tag_106\n      jump\t// in\n    tag_275:\n        /* \"#utility.yul\":13720:13749   */\n      tag_276\n        /* \"#utility.yul\":13738:13748   */\n      dup5\n        /* \"#utility.yul\":13720:13749   */\n      tag_107\n      jump\t// in\n    tag_276:\n        /* \"#utility.yul\":13710:13718   */\n      dup2\n        /* \"#utility.yul\":13706:13750   */\n      add\n        /* \"#utility.yul\":13903:13905   */\n      0x20\n        /* \"#utility.yul\":13891:13901   */\n      dup6\n        /* \"#utility.yul\":13888:13906   */\n      lt\n        /* \"#utility.yul\":13885:13934   */\n      iszero\n      tag_277\n      jumpi\n        /* \"#utility.yul\":13924:13932   */\n      dup2\n        /* \"#utility.yul\":13909:13932   */\n      swap1\n      pop\n        /* \"#utility.yul\":13885:13934   */\n    tag_277:\n        /* \"#utility.yul\":13947:14027   */\n      tag_278\n        /* \"#utility.yul\":14003:14025   */\n      tag_279\n        /* \"#utility.yul\":14021:14024   */\n      dup6\n        /* \"#utility.yul\":14003:14025   */\n      tag_107\n      jump\t// in\n    tag_279:\n        /* \"#utility.yul\":13993:14001   */\n      dup4\n        /* \"#utility.yul\":13989:14026   */\n      add\n        /* \"#utility.yul\":13976:13987   */\n      dup3\n        /* \"#utility.yul\":13947:14027   */\n      tag_115\n      jump\t// in\n    tag_278:\n        /* \"#utility.yul\":13606:14037   */\n      pop\n      pop\n        /* \"#utility.yul\":13591:14037   */\n    tag_274:\n        /* \"#utility.yul\":13501:14044   */\n      pop\n      pop\n      pop\n      jump\t// out\n        /* \"#utility.yul\":14050:14167   */\n    tag_117:\n        /* \"#utility.yul\":14104:14112   */\n      0x00\n        /* \"#utility.yul\":14154:14159   */\n      dup3\n        /* \"#utility.yul\":14148:14152   */\n      dup3\n        /* \"#utility.yul\":14144:14160   */\n      shr\n        /* \"#utility.yul\":14123:14160   */\n      swap1\n      pop\n        /* \"#utility.yul\":14050:14167   */\n      swap3\n      swap2\n      pop\n      pop\n      jump\t// out\n        /* \"#utility.yul\":14173:14342   */\n    tag_118:\n        /* \"#utility.yul\":14217:14223   */\n      0x00\n        /* \"#utility.yul\":14250:14301   */\n      tag_282\n        /* \"#utility.yul\":14298:14299   */\n      0x00\n        /* \"#utility.yul\":14294:14300   */\n      not\n        /* \"#utility.yul\":14286:14291   */\n      dup5\n        /* \"#utility.yul\":14283:14284   */\n      0x08\n        /* \"#utility.yul\":14279:14292   */\n      mul\n        /* \"#utility.yul\":14250:14301   */\n      tag_117\n      jump\t// in\n    tag_282:\n        /* \"#utility.yul\":14246:14302   */\n      not\n        /* \"#utility.yul\":14331:14335   */\n      dup1\n        /* \"#utility.yul\":14325:14329   */\n      dup4\n        /* \"#utility.yul\":14321:14336   */\n      and\n        /* \"#utility.yul\":14311:14336   */\n      swap2\n      pop\n        /* \"#utility.yul\":14224:14342   */\n      pop\n        /* \"#utility.yul\":14173:14342   */\n      swap3\n      swap2\n      pop\n      pop\n      jump\t// out\n        /* \"#utility.yul\":14347:14642   */\n    tag_119:\n        /* \"#utility.yul\":14423:14427   */\n      0x00\n        /* \"#utility.yul\":14569:14598   */\n      tag_284\n        /* \"#utility.yul\":14594:14597   */\n      dup4\n        /* \"#utility.yul\":14588:14592   */\n      dup4\n        /* \"#utility.yul\":14569:14598   */\n      tag_118\n      jump\t// in\n    tag_284:\n        /* \"#utility.yul\":14561:14598   */\n      swap2\n      pop\n        /* \"#utility.yul\":14631:14634   */\n      dup3\n        /* \"#utility.yul\":14628:14629   */\n      0x02\n        /* \"#utility.yul\":14624:14635   */\n      mul\n        /* \"#utility.yul\":14618:14622   */\n      dup3\n        /* \"#utility.yul\":14615:14636   */\n      or\n        /* \"#utility.yul\":14607:14636   */\n      swap1\n      pop\n        /* \"#utility.yul\":14347:14642   */\n      swap3\n      swap2\n      pop\n      pop\n      jump\t// out\n        /* \"#utility.yul\":14647:16042   */\n    tag_41:\n        /* \"#utility.yul\":14764:14801   */\n      tag_286\n        /* \"#utility.yul\":14797:14800   */\n      dup3\n        /* \"#utility.yul\":14764:14801   */\n      tag_88\n      jump\t// in\n    tag_286:\n        /* \"#utility.yul\":14866:14884   */\n      0xffffffffffffffff\n        /* \"#utility.yul\":14858:14864   */\n      dup2\n        /* \"#utility.yul\":14855:14885   */\n      gt\n        /* \"#utility.yul\":14852:14908   */\n      iszero\n      tag_287\n      jumpi\n        /* \"#utility.yul\":14888:14906   */\n      tag_288\n      tag_78\n      jump\t// in\n    tag_288:\n        /* \"#utility.yul\":14852:14908   */\n    tag_287:\n        /* \"#utility.yul\":14932:14970   */\n      tag_289\n        /* \"#utility.yul\":14964:14968   */\n      dup3\n        /* \"#utility.yul\":14958:14969   */\n      sload\n        /* \"#utility.yul\":14932:14970   */\n      tag_48\n      jump\t// in\n    tag_289:\n        /* \"#utility.yul\":15017:15084   */\n      tag_290\n        /* \"#utility.yul\":15077:15083   */\n      dup3\n        /* \"#utility.yul\":15069:15075   */\n      dup3\n        /* \"#utility.yul\":15063:15067   */\n      dup6\n        /* \"#utility.yul\":15017:15084   */\n      tag_116\n      jump\t// in\n    tag_290:\n        /* \"#utility.yul\":15111:15112   */\n      0x00\n        /* \"#utility.yul\":15135:15139   */\n      0x20\n        /* \"#utility.yul\":15122:15139   */\n      swap1\n      pop\n        /* \"#utility.yul\":15167:15169   */\n      0x1f\n        /* \"#utility.yul\":15159:15165   */\n      dup4\n        /* \"#utility.yul\":15156:15170   */\n      gt\n        /* \"#utility.yul\":15184:15185   */\n      0x01\n        /* \"#utility.yul\":15179:15797   */\n      dup2\n      eq\n      tag_292\n      jumpi\n        /* \"#utility.yul\":15841:15842   */\n      0x00\n        /* \"#utility.yul\":15858:15864   */\n      dup5\n        /* \"#utility.yul\":15855:15932   */\n      iszero\n      tag_293\n      jumpi\n        /* \"#utility.yul\":15907:15916   */\n      dup3\n        /* \"#utility.yul\":15902:15905   */\n      dup8\n        /* \"#utility.yul\":15898:15917   */\n      add\n        /* \"#utility.yul\":15892:15918   */\n      mload\n        /* \"#utility.yul\":15883:15918   */\n      swap1\n      pop\n        /* \"#utility.yul\":15855:15932   */\n    tag_293:\n        /* \"#utility.yul\":15958:16025   */\n      tag_294\n        /* \"#utility.yul\":16018:16024   */\n      dup6\n        /* \"#utility.yul\":16011:16016   */\n      dup3\n        /* \"#utility.yul\":15958:16025   */\n      tag_119\n      jump\t// in\n    tag_294:\n        /* \"#utility.yul\":15952:15956   */\n      dup7\n        /* \"#utility.yul\":15945:16026   */\n      sstore\n        /* \"#utility.yul\":15814:16036   */\n      pop\n        /* \"#utility.yul\":15149:16036   */\n      jump(tag_291)\n        /* \"#utility.yul\":15179:15797   */\n    tag_292:\n        /* \"#utility.yul\":15231:15235   */\n      0x1f\n        /* \"#utility.yul\":15227:15236   */\n      not\n        /* \"#utility.yul\":15219:15225   */\n      dup5\n        /* \"#utility.yul\":15215:15237   */\n      and\n        /* \"#utility.yul\":15265:15302   */\n      tag_295\n        /* \"#utility.yul\":15297:15301   */\n      dup7\n        /* \"#utility.yul\":15265:15302   */\n      tag_106\n      jump\t// in\n    tag_295:\n        /* \"#utility.yul\":15324:15325   */\n      0x00\n        /* \"#utility.yul\":15338:15546   */\n    tag_296:\n        /* \"#utility.yul\":15352:15359   */\n      dup3\n        /* \"#utility.yul\":15349:15350   */\n      dup2\n        /* \"#utility.yul\":15346:15360   */\n      lt\n        /* \"#utility.yul\":15338:15546   */\n      iszero\n      tag_298\n      jumpi\n        /* \"#utility.yul\":15431:15440   */\n      dup5\n        /* \"#utility.yul\":15426:15429   */\n      dup10\n        /* \"#utility.yul\":15422:15441   */\n      add\n        /* \"#utility.yul\":15416:15442   */\n      mload\n        /* \"#utility.yul\":15408:15414   */\n      dup3\n        /* \"#utility.yul\":15401:15443   */\n      sstore\n        /* \"#utility.yul\":15482:15483   */\n      0x01\n        /* \"#utility.yul\":15474:15480   */\n      dup3\n        /* \"#utility.yul\":15470:15484   */\n      add\n        /* \"#utility.yul\":15460:15484   */\n      swap2\n      pop\n        /* \"#utility.yul\":15529:15531   */\n      0x20\n        /* \"#utility.yul\":15518:15527   */\n      dup6\n        /* \"#utility.yul\":15514:15532   */\n      add\n        /* \"#utility.yul\":15501:15532   */\n      swap5\n      pop\n        /* \"#utility.yul\":15375:15379   */\n      0x20\n        /* \"#utility.yul\":15372:15373   */\n      dup2\n        /* \"#utility.yul\":15368:15380   */\n      add\n        /* \"#utility.yul\":15363:15380   */\n      swap1\n      pop\n        /* \"#utility.yul\":15338:15546   */\n      jump(tag_296)\n    tag_298:\n        /* \"#utility.yul\":15574:15580   */\n      dup7\n        /* \"#utility.yul\":15565:15572   */\n      dup4\n        /* \"#utility.yul\":15562:15581   */\n      lt\n        /* \"#utility.yul\":15559:15738   */\n      iszero\n      tag_299\n      jumpi\n        /* \"#utility.yul\":15632:15641   */\n      dup5\n        /* \"#utility.yul\":15627:15630   */\n      dup10\n        /* \"#utility.yul\":15623:15642   */\n      add\n        /* \"#utility.yul\":15617:15643   */\n      mload\n        /* \"#utility.yul\":15675:15723   */\n      tag_300\n        /* \"#utility.yul\":15717:15721   */\n      0x1f\n        /* \"#utility.yul\":15709:15715   */\n      dup10\n        /* \"#utility.yul\":15705:15722   */\n      and\n        /* \"#utility.yul\":15694:15703   */\n      dup3\n        /* \"#utility.yul\":15675:15723   */\n      tag_118\n      jump\t// in\n    tag_300:\n        /* \"#utility.yul\":15667:15673   */\n      dup4\n        /* \"#utility.yul\":15660:15724   */\n      sstore\n        /* \"#utility.yul\":15582:15738   */\n      pop\n        /* \"#utility.yul\":15559:15738   */\n    tag_299:\n        /* \"#utility.yul\":15784:15785   */\n      0x01\n        /* \"#utility.yul\":15780:15781   */\n      0x02\n        /* \"#utility.yul\":15772:15778   */\n      dup9\n        /* \"#utility.yul\":15768:15782   */\n      mul\n        /* \"#utility.yul\":15764:15786   */\n      add\n        /* \"#utility.yul\":15758:15762   */\n      dup9\n        /* \"#utility.yul\":15751:15787   */\n      sstore\n        /* \"#utility.yul\":15186:15797   */\n      pop\n      pop\n      pop\n        /* \"#utility.yul\":15149:16036   */\n    tag_291:\n      pop\n        /* \"#utility.yul\":14739:16042   */\n      pop\n      pop\n      pop\n        /* \"#utility.yul\":14647:16042   */\n      pop\n      pop\n      jump\t// out\n\n    auxdata: 0xa2646970667358221220fa8c6c1918ef702825933be3da31a2fbfad17f793d2795d770fcf0e4ab1b791364736f6c63430008160033\n}\n",
				"bytecode": {
					"linkReferences": {},
					"object": "60806040525f80557366a649a18f052a82975bd2eada5d6ad0d83a7dcc60015f6101000a81548173ffffffffffffffffffffffffffffffffffffffff021916908373ffffffffffffffffffffffffffffffffffffffff160217905550348015610066575f80fd5b50610f4b806100745f395ff3fe60806040526004361061003e575f3560e01c80631155dfe5146100425780638642269e1461006c5780638da8f27b14610088578063fffa7e2e146100b0575b5f80fd5b34801561004d575f80fd5b506100566100f2565b6040516100639190610685565b60405180910390f35b610086600480360381019061008191906106d9565b6100fa565b005b348015610093575f80fd5b506100ae60048036038101906100a99190610840565b610249565b005b3480156100bb575f80fd5b506100d660048036038101906100d191906106d9565b610376565b6040516100e997969594939291906109e0565b60405180910390f35b5f8054905090565b60015f9054906101000a900473ffffffffffffffffffffffffffffffffffffffff1673ffffffffffffffffffffffffffffffffffffffff166323b872dd3360025f8581526020019081526020015f205f015f9054906101000a900473ffffffffffffffffffffffffffffffffffffffff1660025f8681526020019081526020015f20600501546040518463ffffffff1660e01b815260040161019e93929190610ae4565b6020604051808303815f875af11580156101ba573d5f803e3d5ffd5b505050506040513d601f19601f820116820180604052508101906101de9190610b4e565b61021d576040517f08c379a000000000000000000000000000000000000000000000000000000000815260040161021490610bc3565b60405180910390fd5b60025f8281526020019081526020015f206006015f81548092919061024190610c0e565b919050555050565b5f6040518060e001604052803373ffffffffffffffffffffffffffffffffffffffff1681526020018781526020018681526020018581526020018481526020018381526020018281525060025f805481526020019081526020015f205f820151815f015f6101000a81548173ffffffffffffffffffffffffffffffffffffffff021916908373ffffffffffffffffffffffffffffffffffffffff16021790555060208201518160010190816102fe9190610e46565b5060408201518160020190816103149190610e46565b50606082015181600301908161032a9190610e46565b5060808201518160040190816103409190610e46565b5060a0820151816005015560c082015181600601559050505f8081548092919061036990610c0e565b9190505550505050505050565b5f6060806060805f8060025f8981526020019081526020015f205f015f9054906101000a900473ffffffffffffffffffffffffffffffffffffffff1660025f8a81526020019081526020015f2060010160025f8b81526020019081526020015f2060020160025f8c81526020019081526020015f2060030160025f8d81526020019081526020015f2060040160025f8e81526020019081526020015f206005015460025f8f81526020019081526020015f206006015485805461043890610c82565b80601f016020809104026020016040519081016040528092919081815260200182805461046490610c82565b80156104af5780601f10610486576101008083540402835291602001916104af565b820191905f5260205f20905b81548152906001019060200180831161049257829003601f168201915b505050505095508480546104c290610c82565b80601f01602080910402602001604051908101604052809291908181526020018280546104ee90610c82565b80156105395780601f1061051057610100808354040283529160200191610539565b820191905f5260205f20905b81548152906001019060200180831161051c57829003601f168201915b5050505050945083805461054c90610c82565b80601f016020809104026020016040519081016040528092919081815260200182805461057890610c82565b80156105c35780601f1061059a576101008083540402835291602001916105c3565b820191905f5260205f20905b8154815290600101906020018083116105a657829003601f168201915b505050505093508280546105d690610c82565b80601f016020809104026020016040519081016040528092919081815260200182805461060290610c82565b801561064d5780601f106106245761010080835404028352916020019161064d565b820191905f5260205f20905b81548152906001019060200180831161063057829003601f168201915b505050505092509650965096509650965096509650919395979092949650565b5f819050919050565b61067f8161066d565b82525050565b5f6020820190506106985f830184610676565b92915050565b5f604051905090565b5f80fd5b5f80fd5b6106b88161066d565b81146106c2575f80fd5b50565b5f813590506106d3816106af565b92915050565b5f602082840312156106ee576106ed6106a7565b5b5f6106fb848285016106c5565b91505092915050565b5f80fd5b5f80fd5b5f601f19601f8301169050919050565b7f4e487b71000000000000000000000000000000000000000000000000000000005f52604160045260245ffd5b6107528261070c565b810181811067ffffffffffffffff821117156107715761077061071c565b5b80604052505050565b5f61078361069e565b905061078f8282610749565b919050565b5f67ffffffffffffffff8211156107ae576107ad61071c565b5b6107b78261070c565b9050602081019050919050565b828183375f83830152505050565b5f6107e46107df84610794565b61077a565b905082815260208101848484011115610800576107ff610708565b5b61080b8482856107c4565b509392505050565b5f82601f83011261082757610826610704565b5b81356108378482602086016107d2565b91505092915050565b5f805f805f60a08688031215610859576108586106a7565b5b5f86013567ffffffffffffffff811115610876576108756106ab565b5b61088288828901610813565b955050602086013567ffffffffffffffff8111156108a3576108a26106ab565b5b6108af88828901610813565b945050604086013567ffffffffffffffff8111156108d0576108cf6106ab565b5b6108dc88828901610813565b935050606086013567ffffffffffffffff8111156108fd576108fc6106ab565b5b61090988828901610813565b925050608061091a888289016106c5565b9150509295509295909350565b5f73ffffffffffffffffffffffffffffffffffffffff82169050919050565b5f61095082610927565b9050919050565b61096081610946565b82525050565b5f81519050919050565b5f82825260208201905092915050565b5f5b8381101561099d578082015181840152602081019050610982565b5f8484015250505050565b5f6109b282610966565b6109bc8185610970565b93506109cc818560208601610980565b6109d58161070c565b840191505092915050565b5f60e0820190506109f35f83018a610957565b8181036020830152610a0581896109a8565b90508181036040830152610a1981886109a8565b90508181036060830152610a2d81876109a8565b90508181036080830152610a4181866109a8565b9050610a5060a0830185610676565b610a5d60c0830184610676565b98975050505050505050565b5f610a7382610927565b9050919050565b610a8381610a69565b82525050565b5f819050919050565b5f610aac610aa7610aa284610927565b610a89565b610927565b9050919050565b5f610abd82610a92565b9050919050565b5f610ace82610ab3565b9050919050565b610ade81610ac4565b82525050565b5f606082019050610af75f830186610a7a565b610b046020830185610ad5565b610b116040830184610676565b949350505050565b5f8115159050919050565b610b2d81610b19565b8114610b37575f80fd5b50565b5f81519050610b4881610b24565b92915050565b5f60208284031215610b6357610b626106a7565b5b5f610b7084828501610b3a565b91505092915050565b7f5472616e73666572206661696c65642e000000000000000000000000000000005f82015250565b5f610bad601083610970565b9150610bb882610b79565b602082019050919050565b5f6020820190508181035f830152610bda81610ba1565b9050919050565b7f4e487b71000000000000000000000000000000000000000000000000000000005f52601160045260245ffd5b5f610c188261066d565b91507fffffffffffffffffffffffffffffffffffffffffffffffffffffffffffffffff8203610c4a57610c49610be1565b5b600182019050919050565b7f4e487b71000000000000000000000000000000000000000000000000000000005f52602260045260245ffd5b5f6002820490506001821680610c9957607f821691505b602082108103610cac57610cab610c55565b5b50919050565b5f819050815f5260205f209050919050565b5f6020601f8301049050919050565b5f82821b905092915050565b5f60088302610d0e7fffffffffffffffffffffffffffffffffffffffffffffffffffffffffffffffff82610cd3565b610d188683610cd3565b95508019841693508086168417925050509392505050565b5f610d4a610d45610d408461066d565b610a89565b61066d565b9050919050565b5f819050919050565b610d6383610d30565b610d77610d6f82610d51565b848454610cdf565b825550505050565b5f90565b610d8b610d7f565b610d96818484610d5a565b505050565b5b81811015610db957610dae5f82610d83565b600181019050610d9c565b5050565b601f821115610dfe57610dcf81610cb2565b610dd884610cc4565b81016020851015610de7578190505b610dfb610df385610cc4565b830182610d9b565b50505b505050565b5f82821c905092915050565b5f610e1e5f1984600802610e03565b1980831691505092915050565b5f610e368383610e0f565b9150826002028217905092915050565b610e4f82610966565b67ffffffffffffffff811115610e6857610e6761071c565b5b610e728254610c82565b610e7d828285610dbd565b5f60209050601f831160018114610eae575f8415610e9c578287015190505b610ea68582610e2b565b865550610f0d565b601f198416610ebc86610cb2565b5f5b82811015610ee357848901518255600182019150602085019450602081019050610ebe565b86831015610f005784890151610efc601f891682610e0f565b8355505b6001600288020188555050505b50505050505056fea2646970667358221220fa8c6c1918ef702825933be3da31a2fbfad17f793d2795d770fcf0e4ab1b791364736f6c63430008160033",
					"opcodes": "PUSH1 0x80 PUSH1 0x40 MSTORE PUSH0 DUP1 SSTORE PUSH20 0x66A649A18F052A82975BD2EADA5D6AD0D83A7DCC PUSH1 0x1 PUSH0 PUSH2 0x100 EXP DUP2 SLOAD DUP2 PUSH20 0xFFFFFFFFFFFFFFFFFFFFFFFFFFFFFFFFFFFFFFFF MUL NOT AND SWAP1 DUP4 PUSH20 0xFFFFFFFFFFFFFFFFFFFFFFFFFFFFFFFFFFFFFFFF AND MUL OR SWAP1 SSTORE POP CALLVALUE DUP1 ISZERO PUSH2 0x66 JUMPI PUSH0 DUP1 REVERT JUMPDEST POP PUSH2 0xF4B DUP1 PUSH2 0x74 PUSH0 CODECOPY PUSH0 RETURN INVALID PUSH1 0x80 PUSH1 0x40 MSTORE PUSH1 0x4 CALLDATASIZE LT PUSH2 0x3E JUMPI PUSH0 CALLDATALOAD PUSH1 0xE0 SHR DUP1 PUSH4 0x1155DFE5 EQ PUSH2 0x42 JUMPI DUP1 PUSH4 0x8642269E EQ PUSH2 0x6C JUMPI DUP1 PUSH4 0x8DA8F27B EQ PUSH2 0x88 JUMPI DUP1 PUSH4 0xFFFA7E2E EQ PUSH2 0xB0 JUMPI JUMPDEST PUSH0 DUP1 REVERT JUMPDEST CALLVALUE DUP1 ISZERO PUSH2 0x4D JUMPI PUSH0 DUP1 REVERT JUMPDEST POP PUSH2 0x56 PUSH2 0xF2 JUMP JUMPDEST PUSH1 0x40 MLOAD PUSH2 0x63 SWAP2 SWAP1 PUSH2 0x685 JUMP JUMPDEST PUSH1 0x40 MLOAD DUP1 SWAP2 SUB SWAP1 RETURN JUMPDEST PUSH2 0x86 PUSH1 0x4 DUP1 CALLDATASIZE SUB DUP2 ADD SWAP1 PUSH2 0x81 SWAP2 SWAP1 PUSH2 0x6D9 JUMP JUMPDEST PUSH2 0xFA JUMP JUMPDEST STOP JUMPDEST CALLVALUE DUP1 ISZERO PUSH2 0x93 JUMPI PUSH0 DUP1 REVERT JUMPDEST POP PUSH2 0xAE PUSH1 0x4 DUP1 CALLDATASIZE SUB DUP2 ADD SWAP1 PUSH2 0xA9 SWAP2 SWAP1 PUSH2 0x840 JUMP JUMPDEST PUSH2 0x249 JUMP JUMPDEST STOP JUMPDEST CALLVALUE DUP1 ISZERO PUSH2 0xBB JUMPI PUSH0 DUP1 REVERT JUMPDEST POP PUSH2 0xD6 PUSH1 0x4 DUP1 CALLDATASIZE SUB DUP2 ADD SWAP1 PUSH2 0xD1 SWAP2 SWAP1 PUSH2 0x6D9 JUMP JUMPDEST PUSH2 0x376 JUMP JUMPDEST PUSH1 0x40 MLOAD PUSH2 0xE9 SWAP8 SWAP7 SWAP6 SWAP5 SWAP4 SWAP3 SWAP2 SWAP1 PUSH2 0x9E0 JUMP JUMPDEST PUSH1 0x40 MLOAD DUP1 SWAP2 SUB SWAP1 RETURN JUMPDEST PUSH0 DUP1 SLOAD SWAP1 POP SWAP1 JUMP JUMPDEST PUSH1 0x1 PUSH0 SWAP1 SLOAD SWAP1 PUSH2 0x100 EXP SWAP1 DIV PUSH20 0xFFFFFFFFFFFFFFFFFFFFFFFFFFFFFFFFFFFFFFFF AND PUSH20 0xFFFFFFFFFFFFFFFFFFFFFFFFFFFFFFFFFFFFFFFF AND PUSH4 0x23B872DD CALLER PUSH1 0x2 PUSH0 DUP6 DUP2 MSTORE PUSH1 0x20 ADD SWAP1 DUP2 MSTORE PUSH1 0x20 ADD PUSH0 KECCAK256 PUSH0 ADD PUSH0 SWAP1 SLOAD SWAP1 PUSH2 0x100 EXP SWAP1 DIV PUSH20 0xFFFFFFFFFFFFFFFFFFFFFFFFFFFFFFFFFFFFFFFF AND PUSH1 0x2 PUSH0 DUP7 DUP2 MSTORE PUSH1 0x20 ADD SWAP1 DUP2 MSTORE PUSH1 0x20 ADD PUSH0 KECCAK256 PUSH1 0x5 ADD SLOAD PUSH1 0x40 MLOAD DUP5 PUSH4 0xFFFFFFFF AND PUSH1 0xE0 SHL DUP2 MSTORE PUSH1 0x4 ADD PUSH2 0x19E SWAP4 SWAP3 SWAP2 SWAP1 PUSH2 0xAE4 JUMP JUMPDEST PUSH1 0x20 PUSH1 0x40 MLOAD DUP1 DUP4 SUB DUP2 PUSH0 DUP8 GAS CALL ISZERO DUP1 ISZERO PUSH2 0x1BA JUMPI RETURNDATASIZE PUSH0 DUP1 RETURNDATACOPY RETURNDATASIZE PUSH0 REVERT JUMPDEST POP POP POP POP PUSH1 0x40 MLOAD RETURNDATASIZE PUSH1 0x1F NOT PUSH1 0x1F DUP3 ADD AND DUP3 ADD DUP1 PUSH1 0x40 MSTORE POP DUP2 ADD SWAP1 PUSH2 0x1DE SWAP2 SWAP1 PUSH2 0xB4E JUMP JUMPDEST PUSH2 0x21D JUMPI PUSH1 0x40 MLOAD PUSH32 0x8C379A000000000000000000000000000000000000000000000000000000000 DUP2 MSTORE PUSH1 0x4 ADD PUSH2 0x214 SWAP1 PUSH2 0xBC3 JUMP JUMPDEST PUSH1 0x40 MLOAD DUP1 SWAP2 SUB SWAP1 REVERT JUMPDEST PUSH1 0x2 PUSH0 DUP3 DUP2 MSTORE PUSH1 0x20 ADD SWAP1 DUP2 MSTORE PUSH1 0x20 ADD PUSH0 KECCAK256 PUSH1 0x6 ADD PUSH0 DUP2 SLOAD DUP1 SWAP3 SWAP2 SWAP1 PUSH2 0x241 SWAP1 PUSH2 0xC0E JUMP JUMPDEST SWAP2 SWAP1 POP SSTORE POP POP JUMP JUMPDEST PUSH0 PUSH1 0x40 MLOAD DUP1 PUSH1 0xE0 ADD PUSH1 0x40 MSTORE DUP1 CALLER PUSH20 0xFFFFFFFFFFFFFFFFFFFFFFFFFFFFFFFFFFFFFFFF AND DUP2 MSTORE PUSH1 0x20 ADD DUP8 DUP2 MSTORE PUSH1 0x20 ADD DUP7 DUP2 MSTORE PUSH1 0x20 ADD DUP6 DUP2 MSTORE PUSH1 0x20 ADD DUP5 DUP2 MSTORE PUSH1 0x20 ADD DUP4 DUP2 MSTORE PUSH1 0x20 ADD DUP3 DUP2 MSTORE POP PUSH1 0x2 PUSH0 DUP1 SLOAD DUP2 MSTORE PUSH1 0x20 ADD SWAP1 DUP2 MSTORE PUSH1 0x20 ADD PUSH0 KECCAK256 PUSH0 DUP3 ADD MLOAD DUP2 PUSH0 ADD PUSH0 PUSH2 0x100 EXP DUP2 SLOAD DUP2 PUSH20 0xFFFFFFFFFFFFFFFFFFFFFFFFFFFFFFFFFFFFFFFF MUL NOT AND SWAP1 DUP4 PUSH20 0xFFFFFFFFFFFFFFFFFFFFFFFFFFFFFFFFFFFFFFFF AND MUL OR SWAP1 SSTORE POP PUSH1 0x20 DUP3 ADD MLOAD DUP2 PUSH1 0x1 ADD SWAP1 DUP2 PUSH2 0x2FE SWAP2 SWAP1 PUSH2 0xE46 JUMP JUMPDEST POP PUSH1 0x40 DUP3 ADD MLOAD DUP2 PUSH1 0x2 ADD SWAP1 DUP2 PUSH2 0x314 SWAP2 SWAP1 PUSH2 0xE46 JUMP JUMPDEST POP PUSH1 0x60 DUP3 ADD MLOAD DUP2 PUSH1 0x3 ADD SWAP1 DUP2 PUSH2 0x32A SWAP2 SWAP1 PUSH2 0xE46 JUMP JUMPDEST POP PUSH1 0x80 DUP3 ADD MLOAD DUP2 PUSH1 0x4 ADD SWAP1 DUP2 PUSH2 0x340 SWAP2 SWAP1 PUSH2 0xE46 JUMP JUMPDEST POP PUSH1 0xA0 DUP3 ADD MLOAD DUP2 PUSH1 0x5 ADD SSTORE PUSH1 0xC0 DUP3 ADD MLOAD DUP2 PUSH1 0x6 ADD SSTORE SWAP1 POP POP PUSH0 DUP1 DUP2 SLOAD DUP1 SWAP3 SWAP2 SWAP1 PUSH2 0x369 SWAP1 PUSH2 0xC0E JUMP JUMPDEST SWAP2 SWAP1 POP SSTORE POP POP POP POP POP POP POP JUMP JUMPDEST PUSH0 PUSH1 0x60 DUP1 PUSH1 0x60 DUP1 PUSH0 DUP1 PUSH1 0x2 PUSH0 DUP10 DUP2 MSTORE PUSH1 0x20 ADD SWAP1 DUP2 MSTORE PUSH1 0x20 ADD PUSH0 KECCAK256 PUSH0 ADD PUSH0 SWAP1 SLOAD SWAP1 PUSH2 0x100 EXP SWAP1 DIV PUSH20 0xFFFFFFFFFFFFFFFFFFFFFFFFFFFFFFFFFFFFFFFF AND PUSH1 0x2 PUSH0 DUP11 DUP2 MSTORE PUSH1 0x20 ADD SWAP1 DUP2 MSTORE PUSH1 0x20 ADD PUSH0 KECCAK256 PUSH1 0x1 ADD PUSH1 0x2 PUSH0 DUP12 DUP2 MSTORE PUSH1 0x20 ADD SWAP1 DUP2 MSTORE PUSH1 0x20 ADD PUSH0 KECCAK256 PUSH1 0x2 ADD PUSH1 0x2 PUSH0 DUP13 DUP2 MSTORE PUSH1 0x20 ADD SWAP1 DUP2 MSTORE PUSH1 0x20 ADD PUSH0 KECCAK256 PUSH1 0x3 ADD PUSH1 0x2 PUSH0 DUP14 DUP2 MSTORE PUSH1 0x20 ADD SWAP1 DUP2 MSTORE PUSH1 0x20 ADD PUSH0 KECCAK256 PUSH1 0x4 ADD PUSH1 0x2 PUSH0 DUP15 DUP2 MSTORE PUSH1 0x20 ADD SWAP1 DUP2 MSTORE PUSH1 0x20 ADD PUSH0 KECCAK256 PUSH1 0x5 ADD SLOAD PUSH1 0x2 PUSH0 DUP16 DUP2 MSTORE PUSH1 0x20 ADD SWAP1 DUP2 MSTORE PUSH1 0x20 ADD PUSH0 KECCAK256 PUSH1 0x6 ADD SLOAD DUP6 DUP1 SLOAD PUSH2 0x438 SWAP1 PUSH2 0xC82 JUMP JUMPDEST DUP1 PUSH1 0x1F ADD PUSH1 0x20 DUP1 SWAP2 DIV MUL PUSH1 0x20 ADD PUSH1 0x40 MLOAD SWAP1 DUP2 ADD PUSH1 0x40 MSTORE DUP1 SWAP3 SWAP2 SWAP1 DUP2 DUP2 MSTORE PUSH1 0x20 ADD DUP3 DUP1 SLOAD PUSH2 0x464 SWAP1 PUSH2 0xC82 JUMP JUMPDEST DUP1 ISZERO PUSH2 0x4AF JUMPI DUP1 PUSH1 0x1F LT PUSH2 0x486 JUMPI PUSH2 0x100 DUP1 DUP4 SLOAD DIV MUL DUP4 MSTORE SWAP2 PUSH1 0x20 ADD SWAP2 PUSH2 0x4AF JUMP JUMPDEST DUP3 ADD SWAP2 SWAP1 PUSH0 MSTORE PUSH1 0x20 PUSH0 KECCAK256 SWAP1 JUMPDEST DUP2 SLOAD DUP2 MSTORE SWAP1 PUSH1 0x1 ADD SWAP1 PUSH1 0x20 ADD DUP1 DUP4 GT PUSH2 0x492 JUMPI DUP3 SWAP1 SUB PUSH1 0x1F AND DUP3 ADD SWAP2 JUMPDEST POP POP POP POP POP SWAP6 POP DUP5 DUP1 SLOAD PUSH2 0x4C2 SWAP1 PUSH2 0xC82 JUMP JUMPDEST DUP1 PUSH1 0x1F ADD PUSH1 0x20 DUP1 SWAP2 DIV MUL PUSH1 0x20 ADD PUSH1 0x40 MLOAD SWAP1 DUP2 ADD PUSH1 0x40 MSTORE DUP1 SWAP3 SWAP2 SWAP1 DUP2 DUP2 MSTORE PUSH1 0x20 ADD DUP3 DUP1 SLOAD PUSH2 0x4EE SWAP1 PUSH2 0xC82 JUMP JUMPDEST DUP1 ISZERO PUSH2 0x539 JUMPI DUP1 PUSH1 0x1F LT PUSH2 0x510 JUMPI PUSH2 0x100 DUP1 DUP4 SLOAD DIV MUL DUP4 MSTORE SWAP2 PUSH1 0x20 ADD SWAP2 PUSH2 0x539 JUMP JUMPDEST DUP3 ADD SWAP2 SWAP1 PUSH0 MSTORE PUSH1 0x20 PUSH0 KECCAK256 SWAP1 JUMPDEST DUP2 SLOAD DUP2 MSTORE SWAP1 PUSH1 0x1 ADD SWAP1 PUSH1 0x20 ADD DUP1 DUP4 GT PUSH2 0x51C JUMPI DUP3 SWAP1 SUB PUSH1 0x1F AND DUP3 ADD SWAP2 JUMPDEST POP POP POP POP POP SWAP5 POP DUP4 DUP1 SLOAD PUSH2 0x54C SWAP1 PUSH2 0xC82 JUMP JUMPDEST DUP1 PUSH1 0x1F ADD PUSH1 0x20 DUP1 SWAP2 DIV MUL PUSH1 0x20 ADD PUSH1 0x40 MLOAD SWAP1 DUP2 ADD PUSH1 0x40 MSTORE DUP1 SWAP3 SWAP2 SWAP1 DUP2 DUP2 MSTORE PUSH1 0x20 ADD DUP3 DUP1 SLOAD PUSH2 0x578 SWAP1 PUSH2 0xC82 JUMP JUMPDEST DUP1 ISZERO PUSH2 0x5C3 JUMPI DUP1 PUSH1 0x1F LT PUSH2 0x59A JUMPI PUSH2 0x100 DUP1 DUP4 SLOAD DIV MUL DUP4 MSTORE SWAP2 PUSH1 0x20 ADD SWAP2 PUSH2 0x5C3 JUMP JUMPDEST DUP3 ADD SWAP2 SWAP1 PUSH0 MSTORE PUSH1 0x20 PUSH0 KECCAK256 SWAP1 JUMPDEST DUP2 SLOAD DUP2 MSTORE SWAP1 PUSH1 0x1 ADD SWAP1 PUSH1 0x20 ADD DUP1 DUP4 GT PUSH2 0x5A6 JUMPI DUP3 SWAP1 SUB PUSH1 0x1F AND DUP3 ADD SWAP2 JUMPDEST POP POP POP POP POP SWAP4 POP DUP3 DUP1 SLOAD PUSH2 0x5D6 SWAP1 PUSH2 0xC82 JUMP JUMPDEST DUP1 PUSH1 0x1F ADD PUSH1 0x20 DUP1 SWAP2 DIV MUL PUSH1 0x20 ADD PUSH1 0x40 MLOAD SWAP1 DUP2 ADD PUSH1 0x40 MSTORE DUP1 SWAP3 SWAP2 SWAP1 DUP2 DUP2 MSTORE PUSH1 0x20 ADD DUP3 DUP1 SLOAD PUSH2 0x602 SWAP1 PUSH2 0xC82 JUMP JUMPDEST DUP1 ISZERO PUSH2 0x64D JUMPI DUP1 PUSH1 0x1F LT PUSH2 0x624 JUMPI PUSH2 0x100 DUP1 DUP4 SLOAD DIV MUL DUP4 MSTORE SWAP2 PUSH1 0x20 ADD SWAP2 PUSH2 0x64D JUMP JUMPDEST DUP3 ADD SWAP2 SWAP1 PUSH0 MSTORE PUSH1 0x20 PUSH0 KECCAK256 SWAP1 JUMPDEST DUP2 SLOAD DUP2 MSTORE SWAP1 PUSH1 0x1 ADD SWAP1 PUSH1 0x20 ADD DUP1 DUP4 GT PUSH2 0x630 JUMPI DUP3 SWAP1 SUB PUSH1 0x1F AND DUP3 ADD SWAP2 JUMPDEST POP POP POP POP POP SWAP3 POP SWAP7 POP SWAP7 POP SWAP7 POP SWAP7 POP SWAP7 POP SWAP7 POP SWAP7 POP SWAP2 SWAP4 SWAP6 SWAP8 SWAP1 SWAP3 SWAP5 SWAP7 POP JUMP JUMPDEST PUSH0 DUP2 SWAP1 POP SWAP2 SWAP1 POP JUMP JUMPDEST PUSH2 0x67F DUP2 PUSH2 0x66D JUMP JUMPDEST DUP3 MSTORE POP POP JUMP JUMPDEST PUSH0 PUSH1 0x20 DUP3 ADD SWAP1 POP PUSH2 0x698 PUSH0 DUP4 ADD DUP5 PUSH2 0x676 JUMP JUMPDEST SWAP3 SWAP2 POP POP JUMP JUMPDEST PUSH0 PUSH1 0x40 MLOAD SWAP1 POP SWAP1 JUMP JUMPDEST PUSH0 DUP1 REVERT JUMPDEST PUSH0 DUP1 REVERT JUMPDEST PUSH2 0x6B8 DUP2 PUSH2 0x66D JUMP JUMPDEST DUP2 EQ PUSH2 0x6C2 JUMPI PUSH0 DUP1 REVERT JUMPDEST POP JUMP JUMPDEST PUSH0 DUP2 CALLDATALOAD SWAP1 POP PUSH2 0x6D3 DUP2 PUSH2 0x6AF JUMP JUMPDEST SWAP3 SWAP2 POP POP JUMP JUMPDEST PUSH0 PUSH1 0x20 DUP3 DUP5 SUB SLT ISZERO PUSH2 0x6EE JUMPI PUSH2 0x6ED PUSH2 0x6A7 JUMP JUMPDEST JUMPDEST PUSH0 PUSH2 0x6FB DUP5 DUP3 DUP6 ADD PUSH2 0x6C5 JUMP JUMPDEST SWAP2 POP POP SWAP3 SWAP2 POP POP JUMP JUMPDEST PUSH0 DUP1 REVERT JUMPDEST PUSH0 DUP1 REVERT JUMPDEST PUSH0 PUSH1 0x1F NOT PUSH1 0x1F DUP4 ADD AND SWAP1 POP SWAP2 SWAP1 POP JUMP JUMPDEST PUSH32 0x4E487B7100000000000000000000000000000000000000000000000000000000 PUSH0 MSTORE PUSH1 0x41 PUSH1 0x4 MSTORE PUSH1 0x24 PUSH0 REVERT JUMPDEST PUSH2 0x752 DUP3 PUSH2 0x70C JUMP JUMPDEST DUP2 ADD DUP2 DUP2 LT PUSH8 0xFFFFFFFFFFFFFFFF DUP3 GT OR ISZERO PUSH2 0x771 JUMPI PUSH2 0x770 PUSH2 0x71C JUMP JUMPDEST JUMPDEST DUP1 PUSH1 0x40 MSTORE POP POP POP JUMP JUMPDEST PUSH0 PUSH2 0x783 PUSH2 0x69E JUMP JUMPDEST SWAP1 POP PUSH2 0x78F DUP3 DUP3 PUSH2 0x749 JUMP JUMPDEST SWAP2 SWAP1 POP JUMP JUMPDEST PUSH0 PUSH8 0xFFFFFFFFFFFFFFFF DUP3 GT ISZERO PUSH2 0x7AE JUMPI PUSH2 0x7AD PUSH2 0x71C JUMP JUMPDEST JUMPDEST PUSH2 0x7B7 DUP3 PUSH2 0x70C JUMP JUMPDEST SWAP1 POP PUSH1 0x20 DUP2 ADD SWAP1 POP SWAP2 SWAP1 POP JUMP JUMPDEST DUP3 DUP2 DUP4 CALLDATACOPY PUSH0 DUP4 DUP4 ADD MSTORE POP POP POP JUMP JUMPDEST PUSH0 PUSH2 0x7E4 PUSH2 0x7DF DUP5 PUSH2 0x794 JUMP JUMPDEST PUSH2 0x77A JUMP JUMPDEST SWAP1 POP DUP3 DUP2 MSTORE PUSH1 0x20 DUP2 ADD DUP5 DUP5 DUP5 ADD GT ISZERO PUSH2 0x800 JUMPI PUSH2 0x7FF PUSH2 0x708 JUMP JUMPDEST JUMPDEST PUSH2 0x80B DUP5 DUP3 DUP6 PUSH2 0x7C4 JUMP JUMPDEST POP SWAP4 SWAP3 POP POP POP JUMP JUMPDEST PUSH0 DUP3 PUSH1 0x1F DUP4 ADD SLT PUSH2 0x827 JUMPI PUSH2 0x826 PUSH2 0x704 JUMP JUMPDEST JUMPDEST DUP2 CALLDATALOAD PUSH2 0x837 DUP5 DUP3 PUSH1 0x20 DUP7 ADD PUSH2 0x7D2 JUMP JUMPDEST SWAP2 POP POP SWAP3 SWAP2 POP POP JUMP JUMPDEST PUSH0 DUP1 PUSH0 DUP1 PUSH0 PUSH1 0xA0 DUP7 DUP9 SUB SLT ISZERO PUSH2 0x859 JUMPI PUSH2 0x858 PUSH2 0x6A7 JUMP JUMPDEST JUMPDEST PUSH0 DUP7 ADD CALLDATALOAD PUSH8 0xFFFFFFFFFFFFFFFF DUP2 GT ISZERO PUSH2 0x876 JUMPI PUSH2 0x875 PUSH2 0x6AB JUMP JUMPDEST JUMPDEST PUSH2 0x882 DUP9 DUP3 DUP10 ADD PUSH2 0x813 JUMP JUMPDEST SWAP6 POP POP PUSH1 0x20 DUP7 ADD CALLDATALOAD PUSH8 0xFFFFFFFFFFFFFFFF DUP2 GT ISZERO PUSH2 0x8A3 JUMPI PUSH2 0x8A2 PUSH2 0x6AB JUMP JUMPDEST JUMPDEST PUSH2 0x8AF DUP9 DUP3 DUP10 ADD PUSH2 0x813 JUMP JUMPDEST SWAP5 POP POP PUSH1 0x40 DUP7 ADD CALLDATALOAD PUSH8 0xFFFFFFFFFFFFFFFF DUP2 GT ISZERO PUSH2 0x8D0 JUMPI PUSH2 0x8CF PUSH2 0x6AB JUMP JUMPDEST JUMPDEST PUSH2 0x8DC DUP9 DUP3 DUP10 ADD PUSH2 0x813 JUMP JUMPDEST SWAP4 POP POP PUSH1 0x60 DUP7 ADD CALLDATALOAD PUSH8 0xFFFFFFFFFFFFFFFF DUP2 GT ISZERO PUSH2 0x8FD JUMPI PUSH2 0x8FC PUSH2 0x6AB JUMP JUMPDEST JUMPDEST PUSH2 0x909 DUP9 DUP3 DUP10 ADD PUSH2 0x813 JUMP JUMPDEST SWAP3 POP POP PUSH1 0x80 PUSH2 0x91A DUP9 DUP3 DUP10 ADD PUSH2 0x6C5 JUMP JUMPDEST SWAP2 POP POP SWAP3 SWAP6 POP SWAP3 SWAP6 SWAP1 SWAP4 POP JUMP JUMPDEST PUSH0 PUSH20 0xFFFFFFFFFFFFFFFFFFFFFFFFFFFFFFFFFFFFFFFF DUP3 AND SWAP1 POP SWAP2 SWAP1 POP JUMP JUMPDEST PUSH0 PUSH2 0x950 DUP3 PUSH2 0x927 JUMP JUMPDEST SWAP1 POP SWAP2 SWAP1 POP JUMP JUMPDEST PUSH2 0x960 DUP2 PUSH2 0x946 JUMP JUMPDEST DUP3 MSTORE POP POP JUMP JUMPDEST PUSH0 DUP2 MLOAD SWAP1 POP SWAP2 SWAP1 POP JUMP JUMPDEST PUSH0 DUP3 DUP3 MSTORE PUSH1 0x20 DUP3 ADD SWAP1 POP SWAP3 SWAP2 POP POP JUMP JUMPDEST PUSH0 JUMPDEST DUP4 DUP2 LT ISZERO PUSH2 0x99D JUMPI DUP1 DUP3 ADD MLOAD DUP2 DUP5 ADD MSTORE PUSH1 0x20 DUP2 ADD SWAP1 POP PUSH2 0x982 JUMP JUMPDEST PUSH0 DUP5 DUP5 ADD MSTORE POP POP POP POP JUMP JUMPDEST PUSH0 PUSH2 0x9B2 DUP3 PUSH2 0x966 JUMP JUMPDEST PUSH2 0x9BC DUP2 DUP6 PUSH2 0x970 JUMP JUMPDEST SWAP4 POP PUSH2 0x9CC DUP2 DUP6 PUSH1 0x20 DUP7 ADD PUSH2 0x980 JUMP JUMPDEST PUSH2 0x9D5 DUP2 PUSH2 0x70C JUMP JUMPDEST DUP5 ADD SWAP2 POP POP SWAP3 SWAP2 POP POP JUMP JUMPDEST PUSH0 PUSH1 0xE0 DUP3 ADD SWAP1 POP PUSH2 0x9F3 PUSH0 DUP4 ADD DUP11 PUSH2 0x957 JUMP JUMPDEST DUP2 DUP2 SUB PUSH1 0x20 DUP4 ADD MSTORE PUSH2 0xA05 DUP2 DUP10 PUSH2 0x9A8 JUMP JUMPDEST SWAP1 POP DUP2 DUP2 SUB PUSH1 0x40 DUP4 ADD MSTORE PUSH2 0xA19 DUP2 DUP9 PUSH2 0x9A8 JUMP JUMPDEST SWAP1 POP DUP2 DUP2 SUB PUSH1 0x60 DUP4 ADD MSTORE PUSH2 0xA2D DUP2 DUP8 PUSH2 0x9A8 JUMP JUMPDEST SWAP1 POP DUP2 DUP2 SUB PUSH1 0x80 DUP4 ADD MSTORE PUSH2 0xA41 DUP2 DUP7 PUSH2 0x9A8 JUMP JUMPDEST SWAP1 POP PUSH2 0xA50 PUSH1 0xA0 DUP4 ADD DUP6 PUSH2 0x676 JUMP JUMPDEST PUSH2 0xA5D PUSH1 0xC0 DUP4 ADD DUP5 PUSH2 0x676 JUMP JUMPDEST SWAP9 SWAP8 POP POP POP POP POP POP POP POP JUMP JUMPDEST PUSH0 PUSH2 0xA73 DUP3 PUSH2 0x927 JUMP JUMPDEST SWAP1 POP SWAP2 SWAP1 POP JUMP JUMPDEST PUSH2 0xA83 DUP2 PUSH2 0xA69 JUMP JUMPDEST DUP3 MSTORE POP POP JUMP JUMPDEST PUSH0 DUP2 SWAP1 POP SWAP2 SWAP1 POP JUMP JUMPDEST PUSH0 PUSH2 0xAAC PUSH2 0xAA7 PUSH2 0xAA2 DUP5 PUSH2 0x927 JUMP JUMPDEST PUSH2 0xA89 JUMP JUMPDEST PUSH2 0x927 JUMP JUMPDEST SWAP1 POP SWAP2 SWAP1 POP JUMP JUMPDEST PUSH0 PUSH2 0xABD DUP3 PUSH2 0xA92 JUMP JUMPDEST SWAP1 POP SWAP2 SWAP1 POP JUMP JUMPDEST PUSH0 PUSH2 0xACE DUP3 PUSH2 0xAB3 JUMP JUMPDEST SWAP1 POP SWAP2 SWAP1 POP JUMP JUMPDEST PUSH2 0xADE DUP2 PUSH2 0xAC4 JUMP JUMPDEST DUP3 MSTORE POP POP JUMP JUMPDEST PUSH0 PUSH1 0x60 DUP3 ADD SWAP1 POP PUSH2 0xAF7 PUSH0 DUP4 ADD DUP7 PUSH2 0xA7A JUMP JUMPDEST PUSH2 0xB04 PUSH1 0x20 DUP4 ADD DUP6 PUSH2 0xAD5 JUMP JUMPDEST PUSH2 0xB11 PUSH1 0x40 DUP4 ADD DUP5 PUSH2 0x676 JUMP JUMPDEST SWAP5 SWAP4 POP POP POP POP JUMP JUMPDEST PUSH0 DUP2 ISZERO ISZERO SWAP1 POP SWAP2 SWAP1 POP JUMP JUMPDEST PUSH2 0xB2D DUP2 PUSH2 0xB19 JUMP JUMPDEST DUP2 EQ PUSH2 0xB37 JUMPI PUSH0 DUP1 REVERT JUMPDEST POP JUMP JUMPDEST PUSH0 DUP2 MLOAD SWAP1 POP PUSH2 0xB48 DUP2 PUSH2 0xB24 JUMP JUMPDEST SWAP3 SWAP2 POP POP JUMP JUMPDEST PUSH0 PUSH1 0x20 DUP3 DUP5 SUB SLT ISZERO PUSH2 0xB63 JUMPI PUSH2 0xB62 PUSH2 0x6A7 JUMP JUMPDEST JUMPDEST PUSH0 PUSH2 0xB70 DUP5 DUP3 DUP6 ADD PUSH2 0xB3A JUMP JUMPDEST SWAP2 POP POP SWAP3 SWAP2 POP POP JUMP JUMPDEST PUSH32 0x5472616E73666572206661696C65642E00000000000000000000000000000000 PUSH0 DUP3 ADD MSTORE POP JUMP JUMPDEST PUSH0 PUSH2 0xBAD PUSH1 0x10 DUP4 PUSH2 0x970 JUMP JUMPDEST SWAP2 POP PUSH2 0xBB8 DUP3 PUSH2 0xB79 JUMP JUMPDEST PUSH1 0x20 DUP3 ADD SWAP1 POP SWAP2 SWAP1 POP JUMP JUMPDEST PUSH0 PUSH1 0x20 DUP3 ADD SWAP1 POP DUP2 DUP2 SUB PUSH0 DUP4 ADD MSTORE PUSH2 0xBDA DUP2 PUSH2 0xBA1 JUMP JUMPDEST SWAP1 POP SWAP2 SWAP1 POP JUMP JUMPDEST PUSH32 0x4E487B7100000000000000000000000000000000000000000000000000000000 PUSH0 MSTORE PUSH1 0x11 PUSH1 0x4 MSTORE PUSH1 0x24 PUSH0 REVERT JUMPDEST PUSH0 PUSH2 0xC18 DUP3 PUSH2 0x66D JUMP JUMPDEST SWAP2 POP PUSH32 0xFFFFFFFFFFFFFFFFFFFFFFFFFFFFFFFFFFFFFFFFFFFFFFFFFFFFFFFFFFFFFFFF DUP3 SUB PUSH2 0xC4A JUMPI PUSH2 0xC49 PUSH2 0xBE1 JUMP JUMPDEST JUMPDEST PUSH1 0x1 DUP3 ADD SWAP1 POP SWAP2 SWAP1 POP JUMP JUMPDEST PUSH32 0x4E487B7100000000000000000000000000000000000000000000000000000000 PUSH0 MSTORE PUSH1 0x22 PUSH1 0x4 MSTORE PUSH1 0x24 PUSH0 REVERT JUMPDEST PUSH0 PUSH1 0x2 DUP3 DIV SWAP1 POP PUSH1 0x1 DUP3 AND DUP1 PUSH2 0xC99 JUMPI PUSH1 0x7F DUP3 AND SWAP2 POP JUMPDEST PUSH1 0x20 DUP3 LT DUP2 SUB PUSH2 0xCAC JUMPI PUSH2 0xCAB PUSH2 0xC55 JUMP JUMPDEST JUMPDEST POP SWAP2 SWAP1 POP JUMP JUMPDEST PUSH0 DUP2 SWAP1 POP DUP2 PUSH0 MSTORE PUSH1 0x20 PUSH0 KECCAK256 SWAP1 POP SWAP2 SWAP1 POP JUMP JUMPDEST PUSH0 PUSH1 0x20 PUSH1 0x1F DUP4 ADD DIV SWAP1 POP SWAP2 SWAP1 POP JUMP JUMPDEST PUSH0 DUP3 DUP3 SHL SWAP1 POP SWAP3 SWAP2 POP POP JUMP JUMPDEST PUSH0 PUSH1 0x8 DUP4 MUL PUSH2 0xD0E PUSH32 0xFFFFFFFFFFFFFFFFFFFFFFFFFFFFFFFFFFFFFFFFFFFFFFFFFFFFFFFFFFFFFFFF DUP3 PUSH2 0xCD3 JUMP JUMPDEST PUSH2 0xD18 DUP7 DUP4 PUSH2 0xCD3 JUMP JUMPDEST SWAP6 POP DUP1 NOT DUP5 AND SWAP4 POP DUP1 DUP7 AND DUP5 OR SWAP3 POP POP POP SWAP4 SWAP3 POP POP POP JUMP JUMPDEST PUSH0 PUSH2 0xD4A PUSH2 0xD45 PUSH2 0xD40 DUP5 PUSH2 0x66D JUMP JUMPDEST PUSH2 0xA89 JUMP JUMPDEST PUSH2 0x66D JUMP JUMPDEST SWAP1 POP SWAP2 SWAP1 POP JUMP JUMPDEST PUSH0 DUP2 SWAP1 POP SWAP2 SWAP1 POP JUMP JUMPDEST PUSH2 0xD63 DUP4 PUSH2 0xD30 JUMP JUMPDEST PUSH2 0xD77 PUSH2 0xD6F DUP3 PUSH2 0xD51 JUMP JUMPDEST DUP5 DUP5 SLOAD PUSH2 0xCDF JUMP JUMPDEST DUP3 SSTORE POP POP POP POP JUMP JUMPDEST PUSH0 SWAP1 JUMP JUMPDEST PUSH2 0xD8B PUSH2 0xD7F JUMP JUMPDEST PUSH2 0xD96 DUP2 DUP5 DUP5 PUSH2 0xD5A JUMP JUMPDEST POP POP POP JUMP JUMPDEST JUMPDEST DUP2 DUP2 LT ISZERO PUSH2 0xDB9 JUMPI PUSH2 0xDAE PUSH0 DUP3 PUSH2 0xD83 JUMP JUMPDEST PUSH1 0x1 DUP2 ADD SWAP1 POP PUSH2 0xD9C JUMP JUMPDEST POP POP JUMP JUMPDEST PUSH1 0x1F DUP3 GT ISZERO PUSH2 0xDFE JUMPI PUSH2 0xDCF DUP2 PUSH2 0xCB2 JUMP JUMPDEST PUSH2 0xDD8 DUP5 PUSH2 0xCC4 JUMP JUMPDEST DUP2 ADD PUSH1 0x20 DUP6 LT ISZERO PUSH2 0xDE7 JUMPI DUP2 SWAP1 POP JUMPDEST PUSH2 0xDFB PUSH2 0xDF3 DUP6 PUSH2 0xCC4 JUMP JUMPDEST DUP4 ADD DUP3 PUSH2 0xD9B JUMP JUMPDEST POP POP JUMPDEST POP POP POP JUMP JUMPDEST PUSH0 DUP3 DUP3 SHR SWAP1 POP SWAP3 SWAP2 POP POP JUMP JUMPDEST PUSH0 PUSH2 0xE1E PUSH0 NOT DUP5 PUSH1 0x8 MUL PUSH2 0xE03 JUMP JUMPDEST NOT DUP1 DUP4 AND SWAP2 POP POP SWAP3 SWAP2 POP POP JUMP JUMPDEST PUSH0 PUSH2 0xE36 DUP4 DUP4 PUSH2 0xE0F JUMP JUMPDEST SWAP2 POP DUP3 PUSH1 0x2 MUL DUP3 OR SWAP1 POP SWAP3 SWAP2 POP POP JUMP JUMPDEST PUSH2 0xE4F DUP3 PUSH2 0x966 JUMP JUMPDEST PUSH8 0xFFFFFFFFFFFFFFFF DUP2 GT ISZERO PUSH2 0xE68 JUMPI PUSH2 0xE67 PUSH2 0x71C JUMP JUMPDEST JUMPDEST PUSH2 0xE72 DUP3 SLOAD PUSH2 0xC82 JUMP JUMPDEST PUSH2 0xE7D DUP3 DUP3 DUP6 PUSH2 0xDBD JUMP JUMPDEST PUSH0 PUSH1 0x20 SWAP1 POP PUSH1 0x1F DUP4 GT PUSH1 0x1 DUP2 EQ PUSH2 0xEAE JUMPI PUSH0 DUP5 ISZERO PUSH2 0xE9C JUMPI DUP3 DUP8 ADD MLOAD SWAP1 POP JUMPDEST PUSH2 0xEA6 DUP6 DUP3 PUSH2 0xE2B JUMP JUMPDEST DUP7 SSTORE POP PUSH2 0xF0D JUMP JUMPDEST PUSH1 0x1F NOT DUP5 AND PUSH2 0xEBC DUP7 PUSH2 0xCB2 JUMP JUMPDEST PUSH0 JUMPDEST DUP3 DUP2 LT ISZERO PUSH2 0xEE3 JUMPI DUP5 DUP10 ADD MLOAD DUP3 SSTORE PUSH1 0x1 DUP3 ADD SWAP2 POP PUSH1 0x20 DUP6 ADD SWAP5 POP PUSH1 0x20 DUP2 ADD SWAP1 POP PUSH2 0xEBE JUMP JUMPDEST DUP7 DUP4 LT ISZERO PUSH2 0xF00 JUMPI DUP5 DUP10 ADD MLOAD PUSH2 0xEFC PUSH1 0x1F DUP10 AND DUP3 PUSH2 0xE0F JUMP JUMPDEST DUP4 SSTORE POP JUMPDEST PUSH1 0x1 PUSH1 0x2 DUP9 MUL ADD DUP9 SSTORE POP POP POP JUMPDEST POP POP POP POP POP POP JUMP INVALID LOG2 PUSH5 0x6970667358 0x22 SLT KECCAK256 STATICCALL DUP13 PUSH13 0x1918EF702825933BE3DA31A2FB STATICCALL 0xD1 PUSH32 0x793D2795D770FCF0E4AB1B791364736F6C634300081600330000000000000000 "
				},
				"gasEstimates": {
					"creation": {
						"codeDepositCost": "783000",
						"executionCost": "30087",
						"totalCost": "813087"
					},
					"external": {
						"buyProduct(uint256)": "infinite",
						"getProductsLength()": "2410",
						"readProduct(uint256)": "infinite",
						"writeProduct(string,string,string,string,uint256)": "infinite"
					}
				},
				"methodIdentifiers": {
					"buyProduct(uint256)": "8642269e",
					"getProductsLength()": "1155dfe5",
					"readProduct(uint256)": "fffa7e2e",
					"writeProduct(string,string,string,string,uint256)": "8da8f27b"
				}
			},
			"storageLayout": {
				"storage": [
					{
						"astId": 71,
						"contract": "contracts/marketplace.sol:Marketplace",
						"label": "productsLength",
						"offset": 0,
						"slot": "0",
						"type": "t_uint256"
					},
					{
						"astId": 74,
						"contract": "contracts/marketplace.sol:Marketplace",
						"label": "cUsdTokenAddress",
						"offset": 0,
						"slot": "1",
						"type": "t_address"
					},
					{
						"astId": 94,
						"contract": "contracts/marketplace.sol:Marketplace",
						"label": "products",
						"offset": 0,
						"slot": "2",
						"type": "t_mapping(t_uint256,t_struct(Product)89_storage)"
					}
				],
				"types": {
					"t_address": {
						"encoding": "inplace",
						"label": "address",
						"numberOfBytes": "20"
					},
					"t_address_payable": {
						"encoding": "inplace",
						"label": "address payable",
						"numberOfBytes": "20"
					},
					"t_mapping(t_uint256,t_struct(Product)89_storage)": {
						"encoding": "mapping",
						"key": "t_uint256",
						"label": "mapping(uint256 => struct Marketplace.Product)",
						"numberOfBytes": "32",
						"value": "t_struct(Product)89_storage"
					},
					"t_string_storage": {
						"encoding": "bytes",
						"label": "string",
						"numberOfBytes": "32"
					},
					"t_struct(Product)89_storage": {
						"encoding": "inplace",
						"label": "struct Marketplace.Product",
						"members": [
							{
								"astId": 76,
								"contract": "contracts/marketplace.sol:Marketplace",
								"label": "owner",
								"offset": 0,
								"slot": "0",
								"type": "t_address_payable"
							},
							{
								"astId": 78,
								"contract": "contracts/marketplace.sol:Marketplace",
								"label": "name",
								"offset": 0,
								"slot": "1",
								"type": "t_string_storage"
							},
							{
								"astId": 80,
								"contract": "contracts/marketplace.sol:Marketplace",
								"label": "image",
								"offset": 0,
								"slot": "2",
								"type": "t_string_storage"
							},
							{
								"astId": 82,
								"contract": "contracts/marketplace.sol:Marketplace",
								"label": "description",
								"offset": 0,
								"slot": "3",
								"type": "t_string_storage"
							},
							{
								"astId": 84,
								"contract": "contracts/marketplace.sol:Marketplace",
								"label": "location",
								"offset": 0,
								"slot": "4",
								"type": "t_string_storage"
							},
							{
								"astId": 86,
								"contract": "contracts/marketplace.sol:Marketplace",
								"label": "price",
								"offset": 0,
								"slot": "5",
								"type": "t_uint256"
							},
							{
								"astId": 88,
								"contract": "contracts/marketplace.sol:Marketplace",
								"label": "sold",
								"offset": 0,
								"slot": "6",
								"type": "t_uint256"
							}
						],
						"numberOfBytes": "224"
					},
					"t_uint256": {
						"encoding": "inplace",
						"label": "uint256",
						"numberOfBytes": "32"
					}
				}
			},
			"userdoc": {
				"kind": "user",
				"methods": {},
				"version": 1
			}
		}
	}
}